:020000040800F2
:1000000000000824C12000087D1700087F170008A1
:1000100081170008831700088517000800000000FA
:100020000000000000000000000000003195000802
:100030008717000800000000D1950008E59000082F
:1000400015210008152100081521000815210008B8
:1000500015210008152100081521000815210008A8
:100060001521000815210008152100081521000898
:100070001521000815210008152100081521000888
:100080001521000815210008152100081521000878
:1000900089170008152100081521000815210008FE
:1000A0001521000815210008152100081521000858
:1000B0001521000815210008152100081521000848
:1000C0001521000815210008152100081521000838
:1000D0001521000815210008152100081521000828
:1000E0001521000815210008000000001521000856
:1000F000991700081521000815210008152100088E
:100100001521000815210008A9170008152100086D
:10011000B91700081521000815210008152100084D
:1001200015210008152100081521000815210008D7
:1001300015210008152100081521000815210008C7
:1001400000000000000000000000000000000000AF
:1001500015210008152100081521000815210008A7
:100160001521000815210008152100081521000897
:100170001521000815210008152100081521000887
:100180001521000815210008C917000815210008CD
:100190001521000815210008152100081521000867
:1001A0001521000815210008152100081521000857
:1001B0001521000815210008152100081521000847
:1001C0001521000815210008152100081521000837
:1001D0001521000815210008152100081521000827
:1001E0001521000815210008152100081521000817
:1001F0001521000815210008152100081521000807
:1002000015210008152100081521000815210008F6
:1002100015210008152100081521000815210008E6
:100220001521000815210008152100080000000014
:100230001521000815210008000000001521000804
:1002400015210008152100081521000815210008B6
:1002500015210008152100081521000815210008A6
:100260001521000815210008152100081521000896
:1002700015210008152100081521000800000000C4
:1002800015210008152100081521000800000000B4
:08029000000000001521000828
:1002C00081F0004102E000BF83F0004330B54FEA07
:1002D00041044FEA430594EA050F08BF90EA020F74
:1002E0001FBF54EA000C55EA020C7FEA645C7FEA07
:1002F000655C00F0E2804FEA5454D4EB5555B8BF2A
:100300006D420CDD2C4480EA020281EA030382EA9A
:10031000000083EA010180EA020281EA0303362D2C
:1003200088BF30BD11F0004F4FEA01314FF4801CFF
:100330004CEA113102D0404261EB410113F0004F11
:100340004FEA03334CEA133302D0524263EB4303C8
:1003500094EA050F00F0A780A4F10104D5F1200E66
:100360000DDB02FA0EFC22FA05F2801841F10001C1
:1003700003FA0EF2801843FA05F359410EE0A5F195
:1003800020050EF1200E012A03FA0EFC28BF4CF0C6
:10039000020C43FA05F3C01851EBE37101F000457C
:1003A00007D54FF0000EDCF1000C7EEB00006EEB89
:1003B0000101B1F5801F1BD3B1F5001F0CD3490813
:1003C0005FEA30004FEA3C0C04F101044FEA44526A
:1003D00012F5800F80F09A80BCF1004F08BF5FEAF1
:1003E000500C50F1000041EB045141EA050130BDD1
:1003F0005FEA4C0C404141EB0101013C28BFB1F5E3
:10040000801FE9D291F0000F04BF01460020B1FA2D
:1004100081F308BF2033A3F10B03B3F120020CDA00
:100420000C3208DD02F1140CC2F10C0201FA0CF0DE
:1004300021FA02F10CE002F11402D8BFC2F1200C43
:1004400001FA02F120FA0CFCDCBF41EA0C019040F9
:10045000E41AA2BF01EB0451294330BD6FEA040442
:100460001F3C1CDA0C340EDC04F11404C4F120022D
:1004700020FA04F001FA02F340EA030021FA04F33F
:1004800045EA030130BDC4F10C04C4F1200220FA96
:1004900002F001FA04F340EA0300294630BD21FAD4
:1004A00004F0294630BD94F0000F83F4801306BF9A
:1004B00081F480110134013D4EE77FEA645C18BF8E
:1004C0007FEA655C29D094EA050F08BF90EA020F25
:1004D00005D054EA000C04BF1946104630BD91EA1D
:1004E000030F1EBF0021002030BD5FEA545C05D120
:1004F0004000494128BF41F0004130BD14F580045F
:100500003CBF01F5801130BD01F0004545F0FE41D2
:1005100041F470014FF0000030BD7FEA645C1ABF07
:10052000194610467FEA655C1CBF0B46024650EA3E
:10053000013406BF52EA033591EA030F41F400216A
:1005400030BD00BF90F0000F04BF0021704730B5F0
:100550004FF4806404F132044FF000054FF00001C5
:1005600050E700BF90F0000F04BF0021704730B586
:100570004FF4806404F1320410F0004548BF40425B
:100580004FF000013EE700BF42004FEAE2014FEAB0
:1005900031014FEA02701FBF12F07F4393F07F4F8B
:1005A00081F06051704732F07F4208BF704793F08E
:1005B0007F4F04BF41F40021704730B54FF46074A1
:1005C00001F0004521F000411CE700BF50EA0102A4
:1005D00008BF704730B54FF000050AE050EA01024D
:1005E00008BF704730B511F0004502D5404261EBBD
:1005F00041014FF4806404F132045FEA915C3FF4FE
:10060000D8AE4FF003025FEADC0C18BF03325FEA9A
:10061000DC0C18BF033202EBDC02C2F1200300FA4B
:1006200003FC20FA02F001FA03FE40EA0E0021FA70
:1006300002F11444BDE600BF70B54FF0FF0C4CF45E
:10064000E06C1CEA11541DBF1CEA135594EA0C0F10
:1006500095EA0C0F00F0DEF82C4481EA030621EA4B
:100660004C5123EA4C5350EA013518BF52EA033586
:1006700041F4801143F4801338D0A0FB02CE4FF038
:100680000005E1FB02E506F00042E0FB03E54FF068
:100690000006E1FB03569CF0000F18BF4EF0010E60
:1006A000A4F1FF04B6F5007F64F5407404D25FEA5C
:1006B0004E0E6D4146EB060642EAC62141EA55510F
:1006C0004FEAC52040EA5E504FEACE2EB4F1FD0C51
:1006D00088BFBCF5E06F1ED8BEF1004F08BF5FEACF
:1006E000500E50F1000041EB045170BD06F0004681
:1006F00046EA010140EA020081EA0301B4EB5C042E
:10070000C2BFD4EB0C0541EA045170BD41F4801125
:100710004FF0000E013C00F3AB8014F1360FDEBF4A
:10072000002001F0004170BDC4F10004203C35DA26
:100730000C341BDC04F11404C4F1200500FA05F3A9
:1007400020FA04F001FA05F240EA020001F000424A
:1007500021F0004110EBD37021FA04F642EB0601C0
:100760005EEA430E08BF20EAD37070BDC4F10C04EA
:10077000C4F1200500FA04F320FA05F001FA04F2AE
:1007800040EA020001F0004110EBD37041F100019A
:100790005EEA430E08BF20EAD37070BDC4F12005A5
:1007A00000FA05F24EEA020E20FA04F301FA05F20D
:1007B00043EA020321FA04F001F0004121FA04F2B5
:1007C00020EA020000EBD3705EEA430E08BF20EA85
:1007D000D37070BD94F0000F0FD101F000464000BF
:1007E00041EB010111F4801F08BF013CF7D041EA41
:1007F000060195F0000F18BF704703F00046520045
:1008000043EB030313F4801F08BF013DF7D043EA15
:100810000603704794EA0C0F0CEA135518BF95EACB
:100820000C0F0CD050EA410618BF52EA4306D1D152
:1008300081EA030101F000414FF0000070BD50EA71
:10084000410606BF1046194652EA430619D094EAFB
:100850000C0F02D150EA013613D195EA0C0F05D1E5
:1008600052EA03361CBF104619460AD181EA030139
:1008700001F0004141F0FE4141F470014FF00000F1
:1008800070BD41F0FE4141F4780170BD70B54FF08C
:10089000FF0C4CF4E06C1CEA11541DBF1CEA13550C
:1008A00094EA0C0F95EA0C0F00F0A7F8A4EB0504EE
:1008B00081EA030E52EA03354FEA013100F08880E5
:1008C0004FEA03334FF0805545EA131343EA1263AE
:1008D0004FEA022245EA111545EA10654FEA002663
:1008E0000EF000419D4208BF964244F1FD0404F51C
:1008F000407402D25B084FEA3202B61A65EB030578
:100900005B084FEA32024FF480104FF4002CB6EB34
:10091000020E75EB030E22BFB61A754640EA0C00B4
:100920005B084FEA3202B6EB020E75EB030E22BFF4
:10093000B61A754640EA5C005B084FEA3202B6EB35
:10094000020E75EB030E22BFB61A754640EA9C00F4
:100950005B084FEA3202B6EB020E75EB030E22BFC4
:10096000B61A754640EADC0055EA060E18D04FEA82
:10097000051545EA16754FEA06164FEAC30343EA22
:1009800052734FEAC2025FEA1C1CC0D111F4801FEF
:100990000BD141EA00014FF000004FF0004CB6E7E8
:1009A00011F4801F04BF01430020B4F1FD0C88BF87
:1009B000BCF5E06F3FF6AFAEB5EB030C04BFB6EB92
:1009C000020C5FEA500C50F1000041EB045170BD85
:1009D0000EF0004E4EEA113114EB5C04C2BFD4EBB2
:1009E0000C0541EA045170BD41F480114FF0000E36
:1009F000013C90E645EA060E8DE60CEA135594EAB2
:100A00000C0F08BF95EA0C0F3FF43BAF94EA0C0FB4
:100A10000AD150EA01347FF434AF95EA0C0F7FF429
:100A200025AF104619462CE795EA0C0F06D152EA7D
:100A300003353FF4FDAE1046194622E750EA410661
:100A400018BF52EA43067FF4C5AE50EA41047FF472
:100A50000DAF52EA43057FF4EBAE12E74FEA4102D5
:100A600012F5001215D211D56FF47873B3EB625200
:100A700012D94FEAC12343F0004343EA505311F027
:100A8000004F23FA02F018BF404270474FF00000B9
:100A9000704750EA013005D111F0004008BF6FF0F7
:100AA000004070474FF00000704700BF4FEA41021E
:100AB000B2F1E04324BFB3F5001CDCF1FE5C0DD9BC
:100AC00001F0004C4FEAC0024CEA5070B2F1004F06
:100AD00040EB830008BF20F00100704711F0804F09
:100AE00021D113F13872BCBF01F00040704741F4CE
:100AF00080114FEA5252C2F11802C2F1200C10FAD2
:100B00000CF320FA02F018BF40F001004FEAC123B5
:100B10004FEAD32303FA0CFC40EA0C0023FA02F359
:100B20004FEA4303CCE77FEA625307D150EA01332F
:100B30001EBF4FF0FE4040F44000704701F00040FF
:100B400040F0FE4040F40000704700BF53B94AB97E
:100B5000002908BF00281CBF4FF0FF314FF0FF30C5
:100B600000F00CB8ADF1080C6DE904CE0BF054FCAC
:100B7000DDF804E0DDE9022304B07047704700BFF0
:100B8000844641EA000313F003036DD1403A41D398
:100B900051F8043B40F8043B51F8043B40F8043B57
:100BA00051F8043B40F8043B51F8043B40F8043B47
:100BB00051F8043B40F8043B51F8043B40F8043B37
:100BC00051F8043B40F8043B51F8043B40F8043B27
:100BD00051F8043B40F8043B51F8043B40F8043B17
:100BE00051F8043B40F8043B51F8043B40F8043B07
:100BF00051F8043B40F8043B51F8043B40F8043BF7
:100C000051F8043B40F8043B51F8043B40F8043BE6
:100C1000403ABDD2303211D351F8043B40F8043B86
:100C200051F8043B40F8043B51F8043B40F8043BC6
:100C300051F8043B40F8043B103AEDD20C3205D396
:100C400051F8043B40F8043B043AF9D2043208D08E
:100C5000D2071CBF11F8013B00F8013B01D30B8800
:100C600003806046704700BF082A13D38B078DD0DE
:100C700010F003038AD0C3F10403D21ADB071CBFB0
:100C800011F8013B00F8013B80D331F8023B20F81A
:100C9000023B7BE7043AD9D3013A11F8013B00F853
:100CA000013BF9D20B7803704B7843708B788370DB
:100CB00060467047000000000000000000000000D7
:100CC00030B490F800F020F007016FF0000C10F045
:100CD000070491F820F040F048804FF000046FF0D6
:100CE0000700D1E9002391F840F000F1080082FAF2
:100CF0004CF2A4FA8CF283FA4CF3A2FA8CF34BBBBD
:100D0000D1E9022382FA4CF200F10800A4FA8CF235
:100D100083FA4CF3A2FA8CF3E3B9D1E9042382FA03
:100D20004CF200F10800A4FA8CF283FA4CF3A2FA18
:100D30008CF37BB9D1E9062301F1200182FA4CF250
:100D400000F10800A4FA8CF283FA4CF3A2FA8CF3B7
:100D5000002BC6D0002A04BF04301A4612BAB2FAD9
:100D600082F200EBD20030BC7047D1E9002304F0DE
:100D70000305C4F100004FEAC50514F0040F91F813
:100D800040F00CFA05F562EA05021CBF63EA0503B0
:100D900062464FF00004AAE70000000000000000D7
:100DA00001F0FF01102A2BDB10F0070F08D010F81C
:100DB000013B013A8B422DD010F0070F42B3F6D120
:100DC000F0B441EA012141EA014122F007047FF039
:100DD00000070023F0E80256083C85EA010586EA90
:100DE000010685FA47F5A3FA87F586FA47F6A5FACC
:100DF00087F68EB9EED1F0BC01F0FF0102F00702D8
:100E000032B110F8013B013A83EA010313B1F8D182
:100E10000020704701387047002D06BF3546033863
:100E2000073815F0010F07D1013015F4807F02BF9C
:100E3000013015F4C03F0130F0BC0138704700BFED
:100E40004FF0FF3C06E000BF4FF0010C02E000BF96
:100E50004FF0010C4DF804CD4FEA410C7FEA6C5C79
:100E60004FEA430C18BF7FEA6C5C1BD001B050EA1C
:100E7000410C0CBF52EA430C91EA030F02BF90EA07
:100E8000020F0020704710F1000F91EA030F58BFC6
:100E9000994208BF90422CBFD8176FEAE37040F028
:100EA000010070474FEA410C7FEA6C5C02D150EAC6
:100EB000013C07D14FEA430C7FEA6C5CD6D152EA81
:100EC000033CD3D05DF8040B704700BF8446104646
:100ED00062468C461946634600E000BF01B5FFF745
:100EE000B7FF002848BF10F1000F01BD4DF808ED15
:100EF000FFF7F4FF0CBF012000205DF808FB00BFE6
:100F00004DF808EDFFF7EAFF34BF012000205DF83F
:100F100008FB00BF4DF808EDFFF7E0FF94BF01208C
:100F200000205DF808FB00BF4DF808EDFFF7CEFF8D
:100F300094BF012000205DF808FB00BF4DF808EDCC
:100F4000FFF7C4FF34BF012000205DF808FB00BF9D
:100F50004FEA410C7FEA6C5C02D150EA013C0AD1B5
:100F60004FEA430C7FEA6C5C02D152EA033C02D1A7
:100F70004FF0000070474FF0010070470348044BEA
:100F8000834202D0034B03B118477047F406002494
:100F9000F4060024000000000548064B1B1AD90F78
:100FA00001EBA301491002D0034B03B1184770476E
:100FB000F4060024F40600240000000010B5064CDE
:100FC000237843B9FFF7DAFF044B13B10448AFF3BA
:100FD00000800123237010BDF806002400000000EB
:100FE000A027010808B5054B1BB105490548AFF31B
:100FF0000080BDE80840FFF7CFBF00BF0000000041
:10100000FC060024A027010800B58BB0002307933D
:101010000893099300930193029303930493059318
:1010200006931F481F4A0260436008228260C36023
:1010300004220261037543750122826103774362D2
:101040008362C3620363436380F83830C26301F094
:10105000F3FBE0B90023079307A9114801F018FD3D
:10106000C0B9114B0093062301930023029340F271
:10107000FF7203920422049205938DF81930694699
:10108000074801F0F3F840B90BB05DF804FB00F03D
:101090005FFADFE700F05CFAE3E700F059FAF3E704
:1010A00014070024002002401000C01000B589B0D1
:1010B0000023039304930593069307930268144B4C
:1010C0009A4202D009B05DF804FB124BD3F8D82045
:1010D00042F02002C3F8D820D3F8D82002F0200232
:1010E0000192019AD3F8E02042F00402C3F8E02014
:1010F000D3F8E03003F004030293029B1023039320
:101100000323049303A9044802F09CFEDAE700BF1E
:1011100000200240004402580008025808B5154853
:10112000154B036000228260C260027442748274B4
:1011300006234361012383610921C1610221016208
:1011400043628362C362036342638363C2630423B3
:10115000036443648364C364036543658365C36553
:1011600003664266836602F0F3F900B908BD00F039
:10117000EFF9FBE77807002400A4004000B589B030
:101180000023039304930593069307930268194B76
:101190009A4202D009B05DF804FB174BD3F8EC205B
:1011A00042F48072C3F8EC20D3F8EC2002F4807291
:1011B0000192019AD3F8E02042F00202C3F8E02045
:1011C000D3F8E03003F002030293029B4FF4405344
:1011D0000393022304930923079303A9074802F00A
:1011E00031FE00220521142001F04CFD142001F0F5
:1011F00059FDCFE700A40040004402580004025803
:1012000008B5012008F007F8FBE7000000B583B03F
:1012100000224021022008F05BFD0A4B18600A4AB8
:1012200000210A4807F098FF094B1860002301933A
:101230000322009280220749074809F0D8F903B039
:101240005DF804FBEC570024602A01080112000835
:10125000180800240428010895C000082DE9F0436F
:101260008DB000240794089409940A940B94544B6D
:10127000D3F8E02042F01002C3F8E020D3F8E020D9
:1012800002F010020192019AD3F8E02042F0040229
:10129000C3F8E020D3F8E02002F004020292029AA0
:1012A000D3F8E02042F08002C3F8E020D3F8E02039
:1012B00002F080020392039AD3F8E02042F0010288
:1012C000C3F8E020D3F8E02002F001020492049A6F
:1012D000D3F8E02042F00202C3F8E020D3F8E02087
:1012E00002F002020592059AD3F8E02042F00802CB
:1012F000C3F8E020D3F8E03003F008030693069B20
:10130000DFF8C89022467021484602F0ABFE2D4F10
:1013100022462721384602F0A5FEDFF8B480224697
:101320000121404602F09EFE274E22464FF4607196
:10133000304602F097FE01224FF40041304602F0A1
:1013400091FE702307930125089509940A9407A933
:10135000484602F077FD4FF400530793089409952F
:1013600007A9384602F06EFD2723079308950994D4
:101370000A9407A9384602F065FD07950895099477
:101380000A9407A9404602F05DFD48F280330793B6
:10139000089509940A9407A9304602F053FD4FF4CA
:1013A000406307930894099507A9304602F04AFD67
:1013B00021464FF0806000F009FF0DB0BDE8F083DA
:1013C0000044025800080258000C0258001002584D
:1013D0000004025808B51248124B0360124B4360D8
:1013E000002383600122C260036143618361C361A2
:1013F000036202F0D3FF50B90021094803F00AF953
:1014000040B90021064803F033F930B908BD00F0B7
:101410009FF8F1E700F09CF8F3E700F099F8F5E7A2
:101420001C080024005400408727700010B5B8B095
:101430000446002133913491359136913791C02281
:1014400002A80BF0A1FA2268234B9A4201D038B0CF
:1014500010BD08220023CDE9022302230C930C22A5
:101460000D920E930F9310934FF4406311934FF42A
:10147000007312934FF48053239302A804F064F88E
:1014800030BB164CD4F8E03043F00203C4F8E0302F
:10149000D4F8E03003F002030093009BC0233393A1
:1014A000122334930023359336930423379333A9BF
:1014B0000B4802F0C7FCD4F8E83043F40013C4F83A
:1014C000E830D4F8E83003F400130193019BBEE741
:1014D00000F03EF8D5E700BF005400400044025839
:1014E0000004025810B584B00024009401940294C2
:1014F000039401F0DBFB01238DF800308DF80140EF
:1015000001941F228DF8082087228DF809208DF87C
:101510000A408DF80B408DF80C308DF80D308DF8A9
:101520000E408DF80F40684601F0DEFB042001F00C
:10153000CBFB04B010BD000008B50268034B9A4213
:1015400000D008BD00F016FEFBE700BF000C004015
:1015500072B6FEE700B59DB04C22002109A80BF041
:1015600013FA2022002101A80BF00EFA022003F04A
:10157000ABF800230093264B9A6942F440429A61EB
:101580009B6903F440430093224BDA6A42F0010264
:10159000DA62DB6A03F001030093009B1C4B9B693A
:1015A00013F4005FFAD0012309934FF480330A93B8
:1015B00002231293139305221492C02215921693BC
:1015C0000423179318930823199300231A931B934A
:1015D00009A803F0A3F8B8B93F23019303230293AA
:1015E00000230393082304934023059306934FF4A9
:1015F00080620792089304210DEB010003F0E2FCE6
:1016000020B91DB05DF804FBFFF7A2FFFFF7A0FFB4
:10161000004802580004005800B5B1B0C0220021B3
:1016200068460BF0B1F94FF408220023CDE90023FE
:101630000522029224230393022304930592069326
:1016400080230793202308934FF000531C93684690
:1016500003F07AFF10B931B05DF804FBFFF778FFB3
:1016600008B5FFF73FFF00F057FDFFF773FFFFF7E7
:10167000D3FFFFF7F3FD00F047FBFFF7ABFE00F0F1
:10168000C5FB00F08DF900F0BDF900F0EDF9FFF7B2
:10169000BBFCFFF743FD00F049FC00F013FC07F032
:1016A0002DFDFFF7B3FD07F03BFDFEE700B583B06E
:1016B0000A4BD3F8F42042F00202C3F8F420D3F826
:1016C000F43003F002030193019B00220F216FF01D
:1016D000010001F0D7FA03B05DF804FB00440258A2
:1016E0000F2801D90120704710B58AB004460022A6
:1016F0000146322001F0C6FA322001F0D3FA1A4B2B
:101700001C601A4BD3F8E82042F00802C3F8E82026
:10171000D3F8E83003F008030093009B01A902A866
:1017200003F0E0FD079BBBB903F0B8FD0346104A88
:10173000A2FB03239B0C013B0E480F4A026040F2C0
:10174000E732C260436000230361836005F0DAFD85
:1017500030B101200AB010BD03F0A0FD4300E6E760
:10176000044805F043FCF5E70C000024004402584F
:1017700083DE1B4370080024000C0040FEE7FEE7F8
:10178000FEE7FEE7FEE7704708B5024802F0CAF937
:1017900008BD00BF7807002408B5024805F072FCB8
:1017A00008BD00BFC008002408B5024805F06AFC67
:1017B00008BD00BF7008002408B5024806F0FCF917
:1017C00008BD00BFD00A002408B5024806F0F4F9AD
:1017D00008BD00BF3C0A00240120704708B50BF08B
:1017E000F5F9162303604FF0FF3008BD08B54FF040
:1017F000FF31FFF7F3FFFEE770B50C4616460025F4
:1018000006E0AFF30080214601F8010B01350C46DC
:10181000B542F6DB304670BD70B50C461646002565
:1018200004E014F8010BAFF300800135B542F8DB9A
:10183000304670BD4FF0FF3070474FF400534B609F
:1018400000207047012070470020704710B5034604
:101850000C4A0D490D48006840B10C48006803442B
:10186000521A934206D8094A136010BD0748084C23
:101870000460F2E70BF0AAF90C2303604FF0FF308D
:10188000F3E700BF0000082400040000BC080024A7
:10189000585C0024314AD2F8883043F47003C2F80F
:1018A00088302F4B1B6803F00F03062B06D82C4AF9
:1018B000136823F00F0343F007031360294B1A68E2
:1018C00042F001021A6000221A611968264A0A4091
:1018D0001A60234B1B6813F0080F06D0204A1368C8
:1018E00023F00F0343F0070313601E4B00229A619D
:1018F000DA611A621D4999621D49D9621D4919634D
:101900005A639963DA6319645A64196821F480216F
:1019100019601A66184B1B686FF30F03B3F1005F71
:1019200003D2164B0122C3F808210E4BD3F8D43052
:1019300013F4805F10D10B4BD3F8D42042F48052C3
:10194000C3F8D4200E4A43F2D2011160D3F8D42058
:1019500022F48052C3F8D420704700BF00ED00E0AD
:1019600000200052004402587FEDF6EA0002020215
:101970000000FF01800201010010005C00800051A6
:1019800000400052054AD36843F00203D360034B82
:101990005B6813F4005FFAD0704700BF004802583C
:1019A00000B58DB02422002103A80AF0EDFF00232A
:1019B0000093019302931148114A026043608360CF
:1019C0004FF6FF72C26003618361012303930593A5
:1019D000099303A905F0F6FC50B900230093029384
:1019E0006946064806F002F828B90DB05DF804FB18
:1019F000FFF7AEFDF1E7FFF7ABFDF6E7580900246E
:101A00000004004000B58DB02422002103A80AF094
:101A1000BBFF00230093019302931148114A026017
:101A2000436083604FF6FF72C260036183610123EC
:101A300003930593099303A905F0C4FC50B900234F
:101A4000009302936946064805F0D0FF28B90DB00F
:101A50005DF804FBFFF77CFDF1E7FFF779FDF6E7A2
:101A60000C0900240008004000B589B0002304934D
:101A70000593069307930193029303931548164A1F
:101A80000260EF224260836041F28732C2600361EC
:101A90004361836105F036FC98B94FF48053049399
:101AA00004A90C4805F0DAFD70B9002301930293F4
:101AB000039301A9074805F099FF40B909B05DF803
:101AC00004FBFFF745FDE8E7FFF742FDEDE7FFF711
:101AD0003FFDF3E7C00800240004014082B0036822
:101AE000114A934204D0B3F1804F0FD002B0704737
:101AF0000E4BD3F8F02042F00102C3F8F020D3F8E7
:101B0000F03003F001030093009BEFE7074BD3F89D
:101B1000E82042F00102C3F8E820D3F8E83003F0EF
:101B200001030193019BE1E70000014000440258DA
:101B300000B58BB000230593069307930893099390
:101B40000368284A934205D0274A934225D00BB018
:101B50005DF804FB254BD3F8E82042F00202C3F8FD
:101B6000E820D3F8E82002F002020192019AD3F8AB
:101B7000E02042F00102C3F8E020D3F8E03003F0A7
:101B800001030293029BC02305930223069309934A
:101B900005A9174802F056F9D9E7144BD3F8E82005
:101BA00042F00402C3F8E820D3F8E82002F004026F
:101BB0000392039AD3F8E02042F00802C3F8E02031
:101BC000D3F8E03003F008030493049B4FF4405330
:101BD000059302230693099305A9064802F032F9FA
:101BE000B5E700BF00040040000800400044025870
:101BF00000000258000C025802680F4B9A4200D0B5
:101C0000704700B583B00D4BD3F8F02042F00202CC
:101C1000C3F8F020D3F8F03003F002030193019BE6
:101C2000002205212C2001F02DF82C2001F03AF89B
:101C300003B05DF804FB00BF0004014000440258FB
:101C400030B589B00023039304930593069307935B
:101C50000368284A934204D0B3F1804F1AD009B0E8
:101C600030BD254BD3F8E02042F01002C3F8E0204D
:101C7000D3F8E03003F010030093009B4FF4D443FB
:101C80000393022304930123079303A91B4802F043
:101C9000D9F8E4E7184BD3F8E02042F00102C3F88A
:101CA000E020D3F8E02002F001020192019AD3F87B
:101CB000E02042F00202C3F8E020D3F8E03003F065
:101CC00002030293029B032303930225049501243C
:101CD000079403A90A4802F0B5F84FF44063039350
:101CE0000495002305930693079403A9054802F081
:101CF000A9F8B4E70000014000440258001002585F
:101D0000000002580004025810B596B00024139445
:101D1000149415940C940D940E940F9410941194A3
:101D200012942C22214601A80AF02EFE3548364B8B
:101D30000360EF234360846044F61F63C360046163
:101D40004461846105F00EFB002845D10023139304
:101D50001493159313A92B4805F048FE00283ED193
:101D600060230C9300220D920E920F92109211920A
:101D700012920CA9234805F0C7FB002832D1042297
:101D80000CA9204805F0C0FB00282ED108220CA980
:101D90001C4805F0B9FB58BB0C220CA9194805F0EA
:101DA000B3FB40BB00230193029303930493059379
:101DB0004FF400520692079308934FF00072099275
:101DC0000A930B9301A90F4805F060FEB0B90D48C6
:101DD000FFF736FF16B010BDFFF7BAFBB6E7FFF707
:101DE000B7FBBDE7FFF7B4FBC9E7FFF7B1FBCDE7F2
:101DF000FFF7AEFBD0E7FFF7ABFBD3E7FFF7A8FB9E
:101E0000E5E700BFF00900240000014000B58BB0F9
:101E1000002307930893099300930193029303937C
:101E200004930593069326484FF080420260EF2208
:101E30004260836044F61F62C2600361836105F003
:101E400091FA50BB00230793099307A91C4805F09A
:101E5000CDFD28BB602300930022019202920492E0
:101E60006946174805F050FBE8B904226946144852
:101E700005F04AFBD0B908226946114805F044FB39
:101E8000B8B90C2269460E4805F03EFBA0B90C48D3
:101E9000FFF7D6FE0BB05DF804FBFFF759FBD1E767
:101EA000FFF756FBD6E7FFF753FBDEE7FFF750FBE4
:101EB000E1E7FFF74DFBE4E7FFF74AFBE7E700BF89
:101EC000A409002408B51748174B03604FF4E13309
:101ED000436000238360C36003610C22426183611D
:101EE000C36103624362836206F073FF70B900212D
:101EF0000C4807F0ADF860B900210A4807F0CDF8AA
:101F000050B9084807F085F848B908BDFFF720FB2D
:101F1000EDE7FFF71DFBEFE7FFF71AFBF1E7FFF730
:101F200017FBF2E7D00A0024004C004008B5174820
:101F3000174B03604FF4E133436000238360C360B9
:101F400003610C2242618361C36103624362836265
:101F500006F03FFF70B900210C4807F079F860B92E
:101F600000210A4807F099F850B9084807F051F8DD
:101F700048B908BDFFF7ECFAEDE7FFF7E9FAEFE73C
:101F8000FFF7E6FAF1E7FFF7E3FAF2E73C0A00248D
:101F90000078004010B5BAB0044600213591369162
:101FA000379138913991C02204A80AF0EDFC2368DA
:101FB0003E4A934204D03E4A93423CD03AB010BDD0
:101FC00002220023CDE9042304A803F0BDFA78BB64
:101FD000384BD3F8E82042F40022C3F8E820D3F8C5
:101FE000E82002F400220092009AD3F8E02042F0A8
:101FF0000102C3F8E020D3F8E03003F001030193BD
:10200000019B4FF4C0533593022336930024379439
:1020100038940623399335A9274801F013FF224647
:102020000521342000F02EFE342000F03BFEC5E7F1
:10203000FFF78EFACCE702220023CDE9042304A89F
:1020400003F082FA78BB1B4BD3F8E82042F08042C1
:10205000C3F8E820D3F8E82002F080420292029A06
:10206000D3F8E02042F01002C3F8E020D3F8E030CB
:1020700003F010030393039B4FF4C07335930223C3
:1020800036930024379438940723399335A90B48A5
:1020900001F0D8FE22460521522000F0F3FD522027
:1020A00000F000FE8AE7FFF753FACCE7004C00404F
:1020B0000078004000440258000002580010025806
:1020C000DFF838D0FFF75EFCFFF7E4FB0C480D4962
:1020D0000D4A002302E0D458C4500433C4188C4283
:1020E000F9D30A4A0A4C002301E013600432A242E9
:1020F000FBD30AF071FDFFF7B3FA70470000082424
:1021000000000024F4060024602D0108F8060024D5
:10211000585C0024FEE7000010B5032000F0A0FD8D
:1021200002F054FE0F498B69C3F303230E4AD35CBC
:1021300003F01F03D8408B6903F00F03D35C03F057
:102140001F0320FA03F3094A1360094B18600F209C
:10215000FFF7C6FA10B10124204610BD0446FFF770
:10216000A5FAF9E700440258842A01080000002477
:1021700004000024034B1B78034A11680B441360CE
:10218000704700BF08000024640B0024014B18684E
:10219000704700BF640B002438B50446FFF7F6FF14
:1021A0000546B4F1FF3F02D0044B1B781C44FFF7F7
:1021B000EDFF401BA042FAD338BD00BF0800002449
:1021C000014B1868000C70470010005C034A53680C
:1021D00023EA00030B435360704700BF000400581C
:1021E00010B430300B0A9B0003F00C03C45801F00C
:1021F0001F014FF01F0C0CFA01FC24EA0C0CC2F377
:1022000084628A404CEA0202C2505DF8044B704777
:1022100010B414304B0E9B0003F00403C458C1F3F8
:1022200004514FF0070C0CFA01FC24EA0C0C8A4014
:102230004CEA0202C2505DF8044B7047C1F313032D
:102240003BB9C1F3846101228A40C3691343C3616E
:10225000704791FAA1F131B1B1FA81F101F01F019A
:1022600001228A40F1E72021F8E7000070B582B032
:102270000023019390F85030012B00F016820446A1
:102280000D46012380F850300268936813F0040F64
:1022900009D0436D43F0200343650120002384F8F7
:1022A000503002B070BD0B68002B0ADBC3F3130182
:1022B00000293DD1C3F3846301219940D3690B43C5
:1022C000D3612A6869682068FFF78AFF20688368FD
:1022D00013F0040300D00123826812F0080200D03A
:1022E000012252EA03062FD02268916811F0010101
:1022F00040F0D7812B68EE68D2F8C000C3F3130C0E
:1023000020EA0C0006F0180C944E26FA0CF6334026
:10231000C3F313030343C2F8C030EA68904B9A42F8
:1023200000F0A1802B68002BC0F242810020B5E7AD
:1023300093FAA3F333B1B3FA83F303F01F0301213C
:102340009940BBE72023F8E7AA682968FFF760FFF8
:10235000844B1B6803F07043B3F1805F0BD022689D
:10236000D36813F0100F3BD16B69D268C2F38202BD
:102370005200934006E06B692268D268C2F3820281
:10238000520093402969042938D02268286802F154
:10239000600C5CF8212002F0004200F0F84003439A
:1023A00013434CF82130236828696A7E012A1FD024
:1023B0003146603353F8202022F000420A4343F8AC
:1023C000202021682A692B7E012B14D00B6923F46D
:1023D000F04302F01F0206FA02F213430B6183E797
:1023E0006B69D268920802F0040252009340C9E778
:1023F0004FF00041DDE74FF40066E7E72268136E17
:1024000003F0F8432968B3EB816F1DD02268536E47
:1024100003F0F8432968B3EB816F1AD02268936EFA
:1024200003F0F8432968B3EB816F17D02268D36EAD
:1024300003F0F8432968B3EB816F7FF455AFD36E97
:1024400023F00043D3664FE7136E23F00043136677
:10245000DCE7536E23F000435366DFE7936E23F00F
:1024600000439366E2E720683F4B984205D03F4B1C
:1024700098422BD0FFF7E2FE54E72B683C4A934288
:102480004AD03C4A934249D03B4A934248D03B4AC7
:10249000934247D002F186621032934244D0384AC8
:1024A000934243D002F1042202F5401293423FD0FE
:1024B00002F1866202F5006293423BD0314A9342B8
:1024C0003AD0314A9342D5D13049D3E72B68284AD4
:1024D000934233D0274A934232D0274A934231D095
:1024E000264A934230D002F18662103293422DD0B8
:1024F000234A93422CD002F1042202F54012934267
:1025000028D002F1866202F50062934224D01E4A6E
:102510009342AFD11D49ADE70121ABE71C49A9E7C3
:102520001C49A7E71C49A5E71C49A3E71C49A1E7EB
:102530001C499FE71C499DE71C499BE7012199E73E
:10254000134997E7134995E7134993E7134991E72F
:1025500013498FE713498DE713498BE7FFFF0F00FE
:102560000000FF470010005C0020024000210240F4
:1025700002003004040060080800900C1000C01035
:102580000004002A000021430000844B0000B84FE3
:10259000400020198000501D000180210002B0255C
:1025A0000008302E001060320020903600005247A4
:1025B00022683F493F48824218BF8A420CBF01212E
:1025C000002118D13C4EB56805F0E07CA9B138492E
:1025D000886810F0010000D001203649896811F0A8
:1025E000010100D0012101430CD0636D43F02003B1
:1025F0006365012052E6314EE5E73149896811F003
:10260000010FF2D12F498B4207D02F498B4226D0A0
:102610002E498B4234D0002040E615F4000FF4D14F
:10262000274B9A4201D0002038E64CF40003B268F0
:1026300022F0E0721343B360254B1B689B09254AC7
:10264000A2FB03239B0901335B00019302E0019B82
:10265000013B0193019B002BF9D100201EE615F0F0
:10266000807FD5D1164B9A4201D0002016E64CF05F
:102670008073B26822F0E0721343B36000200DE66D
:1026800015F4800F0FD10E4B9A4201D0002005E6C1
:102690004CF48003B26822F0E0721343B360002070
:1026A000FCE50020FAE50020F8E50220F9E500BF8E
:1026B0000020024000210240002302400063025833
:1026C00000600258000084CB000052C70000B8CF61
:1026D00004000024632D3E0538B5044603684E49C6
:1026E0004E4A934218BF8B4226D14D4B9B6813F440
:1026F000403F14BF0123002343B302F0ADFD054664
:102700006368B3F5003F05D0B3F5403F1CD0B3F587
:10271000803F02D11B0CB5FBF3F5FFF751FD41F2F1
:102720000303984253D83F4B9D424AD9226893688D
:1027300043F48073936038BD3B4B9B6813F4403F78
:1027400014BF01230023D7E78508E6E74FF40020F4
:10275000002103F061FF05466368B3F5101F2CD01C
:1027600021D8B3F5E01F26D004D9B3F5001FD4D18A
:102770004509D2E7B3F5801F10D009D8B3F5002F73
:102780000CD0B3F5402F09D0B3F5802F06D0C4E7A5
:10279000B3F5A01F02D0B3F5C01FBED19B0C5B00E8
:1027A000B5FBF3F5B9E7B3F5201F08D0B3F5301F3B
:1027B000B3D1050AB1E70509AFE78509ADE7C5095A
:1027C000ABE72268936823F480739360B3E7174BF9
:1027D0009D4205D82268936823F440739360AAE76A
:1027E000134B9D4207D82268936823F4407343F447
:1027F000807393609FE70F4B9D4207D822689368D0
:1028000023F4407343F40073936094E72268936861
:1028100043F4407393608EE70020024000210240A1
:1028200000230240002D31010063025821BCBE008C
:1028300041787D0181F0FA0230B583B00023019325
:10284000002800F00A810446436DEBB123689A68C2
:1028500012F0005F03D09968814A0A409A602368A9
:102860009A6812F0805F1CD199687E4A0A4042F053
:1028700080529A607C4B1B689B097C4AA2FB032315
:102880009B090133019309E0FEF710FC0023A365C7
:1028900084F85030DAE7019B013B0193019B002B48
:1028A000F9D12268936813F0805F40F09980636DDE
:1028B00043F010036365A36D43F00103A365012595
:1028C000936813F0040300D00123616D11F0100F21
:1028D00040F0BB80002B40F0B880636D23F481731F
:1028E00043F002036365936813F0010F1ED1604942
:1028F000604B9A4218BF8A420CBF0122002271D15C
:10290000896811F0010100D001215A4B9B6813F036
:10291000010300D001230B4308D1002A68D0564997
:1029200063688A6822F47C1213438B60FFF748FCCB
:1029300041F20303984202D9A368102B5AD0627D5A
:10294000236B43EA4233A2681343227F43EA0243E4
:10295000227F012A59D0626A22B102F47872A16AF8
:102960000A4313432168C868444A02401A43CA60B4
:1029700021688A6812F0040200D001228B6813F0EB
:10298000080300D0012313431BD1227DE36A43EAED
:102990008232C8683A4B03401343CB6094F8383016
:1029A000012B37D02268136923F0010313612268D9
:1029B000136923F07043616B0B4313612046FFF7EB
:1029C0008BFEE368012B37D02268136B23F00F03D3
:1029D0001363636D23F0030343F00103636539E080
:1029E00000256DE7274B9B6813F0010F9ED194E7FC
:1029F000254995E7617D226B42EA41321343227FEC
:102A000043EA024343F00C03A2E7226A013A43EA95
:102A10004243A0E7206802691C4B1340E26B511E41
:102A2000226C42EA0142616C0A43A16C0A431343DF
:102A300043F001030361BAE721680B6B23F00F0336
:102A4000A269013A13430B63C3E7636D43F01003BC
:102A500063650125284603B030BD0125FAE700BFB4
:102A6000C0FFFF5FC0FFFF6F04000024632D3E0521
:102A700000200240002102400023024003C0F0FF7A
:102A8000FCBFFFFF00600258006302581EF800FC04
:102A900090F85020012A00F0968030B49AB0034696
:102AA000012280F850200022169217920068474AAF
:102AB000904236D000220192019A002A35D09268C5
:102AC00012F0040200D00122846814F0040F6BD1CC
:102AD000002A69D13D4C3E4A904218BFA0422DD1F8
:102AE00002F500720868002839D0906820F4404050
:102AF0004C68204390601868344D354CA04218BF94
:102B0000A8421DD1AC6814F0010400D00124304863
:102B1000806810F0010000D00120204315D0002073
:102B200047E002F580720192C6E75A6D42F020023A
:102B30005A65002283F8502001203DE0254AD1E764
:102B40002548806810F0010F39D19468234820404F
:102B50000C688968214308439060002029E091684F
:102B600021F4404191601968184C1948814218BFFE
:102B7000A1420ED1A06810F0010000D0012014493C
:102B8000896811F0010100D00121014306D0002025
:102B90000FE01149896811F0010F12D190680F49B7
:102BA00001409160002004E05A6D42F020025A6515
:102BB0000120002283F850201AB030BC704700205A
:102BC000F7E70020F5E70220704700BF0020024031
:102BD000002102400063025800600258E0F0FFFF4D
:102BE000002807DB00F01F02400901239340024A3E
:102BF00042F82030704700BF00E100E0002804DB0D
:102C00000901C9B2044B1954704700F00F000901C3
:102C1000C9B2024B1954704700E400E014ED00E023
:102C200000B500F00700C0F1070CBCF1040F28BF8D
:102C30004FF0040C031D062B0FD9C31E4FF0FF3EAF
:102C40000EFA0CF021EA000199400EFA03FE22EA86
:102C50000E0241EA02005DF804FB0023EEE70000EB
:102C60000649CB6823F4E0631B041B0C000200F44C
:102C7000E0600343024A1A43CA60704700ED00E077
:102C80000000FA0510B50446054BD868C0F30220D1
:102C9000FFF7C6FF01462046FFF7B0FF10BD00BF9B
:102CA00000ED00E008B5FFF79BFF08BDBFF35F8FA5
:102CB000044B5A6A22F480325A620022C3F89420EC
:102CC000704700BF00ED00E040F00100054BC3F885
:102CD00094005A6A42F480325A62BFF34F8FBFF3B6
:102CE0006F8F704700ED00E04378144AC2F89830C7
:102CF000D2F8A03023F00103C2F8A0304368C2F834
:102D00009C30017BC37A1B0643EA0173817A43EA54
:102D1000C143417B43EA8143817B43EA4143C17B19
:102D200043EA0143417A43EA0123017A43EA41033A
:102D300001780B43C2F8A030704700BF00ED00E0FF
:102D400070B50446FFF722FA002C00F09181054689
:102D500094F83530DBB2022B06D080236365002364
:102D600084F83430012070BD23688C498C4A93422A
:102D700018BF8B4230D0183293422DD01832934274
:102D80002AD01832934227D01832934224D01832D6
:102D9000934221D0183293421ED002F556729342CC
:102DA0001AD01832934217D01832934214D01832E6
:102DB000934211D0183293420ED0183293420BD066
:102DC0001832934208D01832934205D01A6822F084
:102DD0000E021A60266809E01A6822F01E021A60C4
:102DE0002268536923F080035361266823686B4986
:102DF0006B4A934218BF8B4242D0183293423FD065
:102E0000183293423CD01832934239D01832934250
:102E100036D01832934233D01832934230D002F574
:102E2000567293422CD01832934229D018329342D2
:102E300026D01832934223D01832934220D0183231
:102E400093421DD0183293421AD01832934217D0B1
:102E5000544A934214D01432934211D01432934204
:102E60000ED0143293420BD01432934208D0143255
:102E7000934205D01432934202D01432934204D1CB
:102E8000226E136823F48073136023684349444A15
:102E9000934218BF8B422FD0183293422CD0183255
:102EA000934229D01832934226D01832934223D02D
:102EB0001832934220D0183293421DD002F5567238
:102EC000934219D01832934216D01832934213D03D
:102ED0001832934210D0183293420DD018329342D8
:102EE0000AD01832934207D01832934204D01A689D
:102EF00022F001021A6003E01A6822F001021A604F
:102F0000336813F0010F0ED0FFF740F9431B052B78
:102F1000F6D920236365032384F83530002384F831
:102F2000343001201FE723681C491D4A934218BF13
:102F30008B4239D01832934236D01832934233D074
:102F40001832934230D0183293422DD01832934227
:102F50002AD01832934227D002F55672934223D0DA
:102F60001832934220D0183293421DD01832934227
:102F70001AD01832934217D01832934214D0183214
:102F8000934211D0183293420ED0A16DE36D03F03D
:102F90001F02012393404B600DE000BF1000024070
:102FA0002800024008540258A16DE36D03F01F028F
:102FB0003F2393408B6023682E492F4A934218BFCA
:102FC0008B4242D0183293423FD0183293423CD0C9
:102FD0001832934239D01832934236D01832934285
:102FE00033D01832934230D002F5567293422CD02F
:102FF0001832934229D01832934226D01832934285
:1030000023D01832934220D0183293421DD0183268
:1030100093421AD01832934217D0184A934214D0D0
:103020001432934211D0143293420ED01432934290
:103030000BD01432934208D01432934205D014328C
:10304000934202D0143293420BD1636EA26E5A6047
:10305000E36E33B11A6822F480721A60236F626FD4
:103060005A60012384F83530002084F834007AE671
:10307000012078E61000024028000240085402585F
:10308000002800F0288108B5024690F83530DBB200
:10309000022B03D080234365012008BD03689048BC
:1030A00090498B4218BF83420CBF0120002065D09D
:1030B00018318B4262D018318B425FD018318B426D
:1030C0005CD018318B4259D018318B4256D0183110
:1030D0008B4253D001F556718B424FD018318B4241
:1030E0004CD018318B4249D018318B4246D0183120
:1030F0008B4243D018318B4240D018318B423DD0A7
:1031000018318B423AD0196821F00E01196013680A
:10311000734874498B4218BF83426AD072498B420C
:1031200067D018318B4264D018318B4261D018318E
:103130008B425ED018318B425BD018318B4258D015
:1031400001F556718B4254D018318B4251D0183151
:103150008B424ED018318B424BD018318B4248D025
:1031600018318B4245D018318B4242D018318B42F6
:103170003FD0196821F0010119603EE0042182F876
:10318000351080BB584A93422DD0183293422AD032
:103190001832934227D01832934224D018329342E7
:1031A00021D0183293421ED002F5567293421AD0A3
:1031B0001832934217D01832934214D018329342E7
:1031C00011D0183293420ED0183293420BD01832DD
:1031D000934208D01832934205D01A6822F00102B7
:1031E0001A60002059E71A6822F001021A600020D4
:1031F00053E7196821F0010119601368384839490B
:103200008B4218BF834242D018318B423FD01831D5
:103210008B423CD018318B4239D018318B4236D09A
:1032200018318B4233D018318B4230D001F55671B2
:103230008B422CD018318B4229D018318B4226D0AA
:1032400018318B4223D018318B4220D018318B4259
:103250001DD018318B421AD018318B4217D0234918
:103260008B4214D014318B4211D014318B420ED0CA
:1032700014318B420BD014318B4208D014318B4265
:1032800005D014318B4202D014318B4217D1116E0C
:103290000B6823F480730B60906DD36D03F01F01F6
:1032A00001238B404360536E916E5960D36E33B1EE
:1032B000196821F480711960136F516F59600123EF
:1032C00082F83530002382F83430136D2BB110466C
:1032D00098470020E1E6012070470020DDE600BFAE
:1032E00010000240280002404000024008540258EA
:1032F00030B4416B0468D4F884306F4A134043EA19
:103300008103C4F884300468D4F8843023F47F0344
:10331000856B43EA0543C4F88430836B0B4404682F
:10332000D4F88810114041EA8301C4F88810046879
:10333000D4F8881021F4FE01C56B41EA0541C4F8B8
:103340008810C16B03EB41030468D4F8A01011404E
:1033500041EA8301C4F8A0100468D4F8A01021F455
:10336000FE01056C41EA0541C4F8A010016C446CF3
:1033700004FB01330468D4F8B010114041EA830122
:10338000C4F8B0100468D4F8B01021F4FE01856CC4
:1033900041EA0541C4F8B010816CC46C04FB0133F0
:1033A0000468D4F8AC10114041EA8301C4F8AC10B1
:1033B000016D446D04FB01330468D4F8F010114032
:1033C00041EA8301C4F8F0100468D4F8F01021F445
:1033D0007C11856D41EA0541C4F8F010816D03EB65
:1033E00041030468D4F8C0100A4042EA8303C4F8D9
:1033F000C0300268D2F8C03023F47C13C16D43EAB8
:103400000143C2F8C0300268D2F8C03023F07C53C8
:10341000016E43EA0163C2F8C030436B274A1A4485
:103420009200C266836B02EB83030367C16B03EBFD
:10343000C1034367016C446C04FB01F103EB81039E
:103440008367816CC46C04FB01F103EB8103C367E8
:10345000016D446D04FB01F103EB8103C0F8803082
:10346000816D03EBC103C0F88430816EC46D01FB34
:1034700004FC03EB8C03C0F88830046E04FB01F1FC
:1034800003EB8103C0F890300D498B420DD9D0F881
:103490009C3043F02003C0F89C30032380F8983020
:1034A000012007E0002342F8043BD0F8903093421B
:1034B000F8D8002030BC70470300FFFF002B00103D
:1034C000FCD3004070B54C68FCB90D698C6825438D
:1034D0000C6845EA84450E6ACC6944EA06648E6944
:1034E00034434E693443CE6844EA0644D0F88460DD
:1034F000806E00FB03F306EB830E46F82350CEF8F4
:1035000004400EF1080E002019E00C698D68254377
:103510000C68254345F08045DDE702EB000C9CF884
:1035200003409CF802301B0443EA04639CF801400A
:1035300043EA0423145C23434EF8043B0430CB6875
:10354000024CE35C8342E8D870BD00BF942A0108B6
:1035500030B595B004464C22A04901A8FDF710FBF8
:10356000002C00F0388123689D4A934220D094F8C3
:1035700098300BB32268936923F010039361FEF730
:1035800005FE054623689A6912F0080F1AD0FEF767
:10359000FDFD431B0A2BF5D9D4F89C3043F0010301
:1035A000C4F89C30032384F89830012015B030BD56
:1035B00003F580736360DAE784F899302046FDF7FD
:1035C000DDFDD7E79A6942F001029A61FEF7DEFD60
:1035D000054623689A6912F0010F0FD1FEF7D6FD58
:1035E000401B0A28F5D9D4F89C3043F00103C4F8F5
:1035F0009C30032384F898300120D7E79A6942F081
:1036000002029A61237C012B40D02268936943F027
:1036100040039361637C012B3ED02268936923F4BD
:1036200080439361A37C012B3CD02268936943F4CF
:10363000805393612268936923F44073A1680B431C
:1036400093612268936923F0A4039361226813694C
:1036500023F010031361E368012B29D0002B2CD039
:10366000022B00F09B802268936943F080039361F2
:103670002268136943F010031361E368032B1CD124
:103680002268936943F02003936116E022689369EE
:1036900023F040039361BDE72268936943F48043BC
:1036A0009361BFE72268936923F480539361C1E774
:1036B0002268936943F004039361A3695A1EE36986
:1036C000013B1B0243EA4263226A013A13436269E7
:1036D000013A216843EA0243CB61A368B3F5407F16
:1036E00062D0236E33B12268D2F8C030616E0B43D2
:1036F000C2F8C030E36D226ED3420DD02168D1F8FC
:10370000C83023F00703A26E14A800EB820252F81F
:103710004C2C1343C1F8C830236C6BB12168D1F82D
:10372000BC3023F00703626C14A800EB820252F84D
:103730004C2C1343C1F8BC30A36C73B12168D1F891
:10374000BC3023F07003E26C14A800EB820252F844
:103750004C2C43EA0213C1F8BC30236D73B12168CD
:10376000D1F8BC3023F4E063626D14A800EB820250
:1037700052F84C2C43EA0223C1F8BC302268184BA3
:103780009A4222D00023C4F89430C4F89C3001231C
:1037900084F898302046FFF7ABFD07E7226893696D
:1037A00043F02003936188E7A36A013BE26A013A90
:1037B00043EA0223226B013A43EA0213626A013AA6
:1037C000216843EA0243CB608BE76268936823F089
:1037D00003039360D6E70120E8E600BFB82701089D
:1037E00000A0004090F89830DBB2012B07D0D0F851
:1037F0009C3043F00403C0F89C3001207047022342
:1038000080F898300268936923F0010393610023E4
:10381000C0F89C301846704738B5044690F8983088
:10382000DBB2022B2BD10368D3F8C00010F07C5F11
:103830000CD0D3F8C40010F4001F0FD0D4F89C3083
:1038400043F40073C4F89C3001201FE0D4F89C308E
:1038500043F02003C4F89C30012017E0D3F8C45093
:10386000C5F304452B462046FFF72CFE22680123B2
:10387000AB40C2F8D030C4F89430002006E0D0F855
:103880009C3043F00803C0F89C30012038BD000094
:1038900090F898C05FFA8CFCBCF1020F40F0DF801A
:1038A00070B540290CD041293DD0046D8C426DD8B3
:1038B000D0F89C3043F02003C0F89C300120C1E0D8
:1038C0000468D4F8A05015F4FE0F0CD0D4F8A4501E
:1038D00015F07F0F0FD1D0F89C3043F48073C0F8FF
:1038E0009C300120AEE0D0F89C3043F02003C0F8BB
:1038F0009C300120A6E0D4F8A46016F0807604D0B5
:10390000D4F8A050002D0CDB0026D4F8A440C4F35A
:1039100005242644456F446C06FB04F405EB840E35
:103920003BE00126F1E70468D4F8B05015F4FE0F2F
:103930000CD0D4F8B45015F07F0F0FD1D0F89C30D4
:1039400043F48073C0F89C3001207BE0D0F89C30B9
:1039500043F02003C0F89C30012073E0D4F8B46039
:1039600016F0807604D0D4F8B050002D0CDB002681
:10397000D4F8B440C4F305242644856FC46C06FB18
:1039800004F405EB840E08E00126F1E7C56F446DF1
:1039900001FB04F405EB840E0026DEF8004004F081
:1039A0008044546064BBDEF80040C4F38A44146071
:1039B000DEF8004004F000549460DEF8004004F0AB
:1039C00000441461BEF80440D461BEF8064004F01F
:1039D0000F04D460DEF8044004F480145461DEF86F
:1039E000044004F4001494619EF8074004F07F043E
:1039F0001462DEF80440E40F54624FF0000C0CE057
:103A0000DEF8004024F060441460D1E70EEB0C04B3
:103A1000247A03F80C400CF1010CD468144D2C5D91
:103A20006445F3D8402909D041290CD01F290ED86C
:103A3000026801238B40C2F8983002E00368C3F8A3
:103A4000A860002070BD0368C3F8B860F9E701F012
:103A50001F01026801238B40C2F89C30F1E7D0F8C7
:103A60009C3043F00803C0F89C300120704700BF31
:103A7000942A010890F89830013BDBB2012B07D95A
:103A8000D0F89C3043F00203C0F89C30012070470E
:103A900010B403689C6D0C4224D1DC6D44F0010429
:103AA000DC6511F4007F05D00468D4F8E0301343DE
:103AB000C4F8E03011F4806F05D00468D4F8E43025
:103AC0001343C4F8E4300068436D0C4A0A401343C2
:103AD00043650B4A536943EA9173536100205DF8D3
:103AE000044B70479C6D31EA040402D00324DC656A
:103AF000D7E7DC6D44F00204DC65D2E7FFFFCF3F7F
:103B000000A8004070477047704770477047704783
:103B100070477047704770477047704770477047ED
:103B2000704770472DE9F04F83B00446904B1A69F7
:103B30005B69134001939B07009303681A6D02F4BD
:103B4000704A5A6D0AEA020A1A6D02F00F095A6D9C
:103B500009EA02091A6D02F0F0085A6D08EA020833
:103B60001E6D06F071565A6D16401F6D07F0607796
:103B70005A6D17405D6DD3F850B015F4807F02D0B8
:103B80001BF4807F64D115F4806F02D01BF4806F2A
:103B900067D1009B002B74D1BAF1000F7ED1B9F12F
:103BA000000F40F08780B8F1000F40F08F8015F4CF
:103BB000006F03D01BF4006F40F0948015F4007F79
:103BC00003D01BF4007F40F0988015F4002F03D041
:103BD0001BF4002F40F0A18015F4803F03D01BF4AC
:103BE000803F40F0A58015F4802F03D01BF4802F78
:103BF00040F0A98015F4003F0FD01BF4003F0CD01B
:103C000023684FF400321A65594B00221A61D4F828
:103C10009C3043F08003C4F89C30002F40F09E801D
:103C20004EB123681E65B20F514B1A61D4F89C3017
:103C30003343C4F89C3022684E4B9A4200F09C807B
:103C4000D4F89C30002B40F0F98003B0BDE8F08F31
:103C50004FF480721A65464B00221A61FFF75BFF32
:103C600091E72368D3F8DC10D3F8E4204FF48060A8
:103C700018653F4B0020186111402046FFF747FFB1
:103C800087E7236800221A65019B03F00303384A83
:103C9000136100992046FFF735FF7DE72368C3F8DD
:103CA00050A04FEA9A72324B1A6151462046FFF7F4
:103CB0002AFF74E72368C3F850904FEA99722C4B9F
:103CC0001A614946204607F005FB6CE72368C3F8F4
:103CD00050804FEA9872264B1A6141462046FFF702
:103CE00013FF64E723684FF400621A65204B00223B
:103CF0001A612046FFF709FF60E72368D3F8D81060
:103D0000D3F8E0204FF400701865194B00201861BB
:103D100011402046FFF7FAFE57E723684FF40022D0
:103D20001A65134B00221A612046FFF7F1FE53E794
:103D300023684FF480321A650D4B00221A61204629
:103D4000FFF7E7FE4FE723684FF480221A65084B20
:103D500000221A612046FFF7DDFE4BE723681F654E
:103D6000BA0F034B1A6139462046FFF7D6FE57E7D4
:103D700000A8004000A0004063689A6812F0030F9A
:103D80003FF45EAF196A01F00F015A6A186A00F039
:103D90003008586A08EA00081F6A07F4C077586AB2
:103DA00007401E6A06F4FC46586A06401D6A05F480
:103DB000F025586A0540D3F82490D3F820A011408C
:103DC0001CD1B8F1000F1ED119F0400F02D01AF02B
:103DD000400F20D15FBB36B163681E62D4F89C30BF
:103DE0003343C4F89C30002D3FF42AAF63681D6252
:103DF000D4F89C302B43C4F89C3021E7196220464C
:103E0000FFF78CFEDDE76368C3F82080414620465B
:103E1000FFF785FED8E76368D96BDA6B402018623C
:103E200002F03F02090C2046FFF77AFED2E76368F2
:103E30001F6239462046FFF774FECCE72046FFF7A5
:103E40006BFE02E7F0B583B000236BE085685E008F
:103E50000324B44025EA0405CC68B4402C438460B4
:103E6000456825EA0C054C68C4F300149C402C43BB
:103E7000446069E0DD08083550F8254003F0070C80
:103E80004FEA8C0C4FF00F0E0EFA0CFE24EA0E0EC9
:103E90000C6904FA0CF444EA0E0440F825406BE087
:103EA000092400E0002404FA0EF42C430CF1020C67
:103EB000694D45F82C404FF0B0442568D44325EABD
:103EC00002064F6817F4801F01D042EA05064FF042
:103ED000B0452E606D6804EA05064F6817F4001FB0
:103EE00001D042EA05064FF0B0456E60D5F8845027
:103EF00004EA05064F6817F4003F01D042EA0506C0
:103F00004FF0B045C5F88460D5F880502C404E681D
:103F100016F4803F01D042EA05044FF0B042C2F8E7
:103F2000804001330A6832FA03F400F092804FF0C7
:103F3000010C0CFA03FC1CEA0202F2D04C6804F0FB
:103F40000304013C012C81D94C6804F00304032CC8
:103F50000CD0C4685D004FF0030C0CFA05FC24EA99
:103F60000C0C8C68AC4044EA0C04C4604C6804F04F
:103F70000304022C3FF47EAF04684FEA430E4FF077
:103F8000030C0CFA0EFC24EA0C0C4C6804F003043D
:103F900004FA0EF444EA0C0404604C6814F4403F44
:103FA000BFD02E4CD4F8F45045F00205C4F8F450BC
:103FB000D4F8F44004F002040194019C4FEA930CFD
:103FC0000CF10205244C54F8255003F0030E4FEA7F
:103FD0008E0E0F2404FA0EF425EA0405204CA042AC
:103FE0003FF460AF04F58064A04222D004F5806401
:103FF000A04220D004F58064A0421ED004F5806465
:10400000A0421CD004F58064A0421AD004F580645C
:10401000A04218D004F58064A04216D004F5806454
:10402000A04214D004F58064A0423FF439AF0A24C2
:1040300039E7012437E7022435E7032433E7042472
:1040400031E705242FE706242DE707242BE7082472
:1040500029E703B0F0BD00BF000400580044025837
:10406000000002580AB181617047090481617047FC
:1040700003689A6912F0020F01D000229A62036865
:104080009A6912F0010F03D19A6942F001029A6114
:10409000704710B4019CC1F3090141EA0241194380
:1040A000214321F0004102685368640D04F48064E8
:1040B00044F07F7444F4583444F47F7444F00304AF
:1040C00023EA04030B4353605DF8044B70472DE96A
:1040D000F041044603689E6916F010067ED00D4636
:1040E00090461022DA61002637462368986910F05E
:1040F000200F32D18FBBB5F1FF3FF6D0FEF746F867
:10410000A0EB0800A84201D8002DEED121684A6832
:1041100002F4804294F84230DBB2886910F4004F18
:1041200004D0203B18BF012302B973B923689B69EF
:1041300013F0200FD9D1FEF729F8A0EB08001928B9
:10414000F4D946F020060127CFE74B6843F48043BB
:104150004B60FEF71BF88046E8E70FB92022DA61D2
:1041600046F0040601252268936913F4807F05D088
:1041700046F001064FF48071D161012513F4806F80
:1041800006D046F0080622684FF48061D16101250F
:1041900013F4007F24D046F0020623684FF4007227
:1041A000DA6101252046FFF763FF2268536823F098
:1041B000FF7323F48B3323F4FF7323F00103536065
:1041C000636C33436364202384F84130002384F814
:1041D000423084F840302846BDE8F0810025C2E72F
:1041E000002DF8D0DEE770B504460D46164623686C
:1041F0009B6913F0020F22D1324629462046FFF771
:1042000066FFF0B9B5F1FF3FF1D0FDF7BFFF801BAE
:10421000A84201D8002DEAD123689B6913F0020F50
:10422000E5D1636C43F020036364202384F84130BC
:10423000002384F8423084F84030012000E0002060
:1042400070BD0120FCE72DE9F84305468846174676
:104250001E46DDF820902B689C6938EA04040CBFE8
:1042600001230023BB4227D14A4631462846FFF7A7
:104270002EFF20BBB6F1FF3FEDD0FDF787FFA0EB8F
:104280000900B04201D8002EE5D12B689B6938EABD
:1042900003030CBF01230023BB42DCD16B6C43F052
:1042A00020036B64202385F84130002385F84230D9
:1042B00085F84030012000E00020BDE8F8830120AF
:1042C000FBE700002DE9F04182B0044690461D4610
:1042D000089E099F184B00930023EAB2FFF7D9FE0E
:1042E0003A4631462046FFF77EFFF8B9012D0ED140
:1042F00023685FFA88F29A620097334600224021D1
:104300002046FFF7A0FFA8B902B0BDE8F0812368FE
:104310004FEA18229A623A4631462046FFF763FF79
:1043200030B923685FFA88F29A62E5E70120EBE78B
:104330000120E9E70120E7E70020008070B504468E
:104340000D46164604E023689B6913F0200F12D037
:1043500023689B6913F0200F1BD132462946204663
:10436000FFF7B5FEB8B9FDF711FF801BA842EAD8E8
:10437000002DEDD1E7E7636C43F020036364202355
:1043800084F84130002384F8423084F84030012022
:1043900000E0002070BD0120FCE7000000285DD097
:1043A00010B5044690F84130002B46D0242384F801
:1043B00041302268136823F00103136063682268A8
:1043C00023F0706313612268936823F400439360C1
:1043D000E368012B36D0A368226843F4044393605A
:1043E000E368022B34D02268536823F400635360DF
:1043F000226851681A4B0B4353602268D36823F438
:104400000043D360236962691343A169226843EAC8
:104410000123D360E369216A22680B431360226899
:10442000136843F00103136000206064202384F8C4
:104430004130206384F8420010BD80F84030FCF722
:10444000F5FFB3E7A368226843F400439360C7E72E
:104450002268536843F400635360C9E70120704742
:10446000008000022DE9F04F83B00D46BDF834A066
:104470000E9F90F84110C9B2202940F0BD8004463B
:10448000904699460C9BBAF1000F18BF002B16D02E
:1044900090F84030012B00F0B3804FF0010B80F812
:1044A00040B0FDF773FE0646009019235A464FF4BC
:1044B00000412046FFF7C7FE30B101209DE04FF4D8
:1044C00000734364012098E0222384F841304023A4
:1044D00084F84230002363640C9A6262A4F82AA034
:1044E0006363019600974B46424629462046FFF7F4
:1044F000E9FE70B9638D9BB2FF2B0FD9FF22228595
:10450000434B00934FF0807329462046FFF7C1FDCF
:1045100021E0002384F8403058466EE0628D92B26C
:1045200022853B4B00934FF00073D2B229462046C0
:10453000FFF7AFFD0FE0628D92B22285002300935A
:104540004FF00073D2B229462046FFF7A2FD638DDB
:104550009BB2002B34D000963B460022042120461B
:10456000FFF771FE00284DD123685A6A636A1A70FA
:10457000636A01336362228D013A92B22285638DB0
:104580009BB2013B9BB26385638D9BB2002BDED057
:10459000002ADCD100963B4680212046FFF753FEDF
:1045A00090BB638D9BB2FF2BC5D9FF2222850023D0
:1045B00000934FF0807329462046FFF76AFDC6E757
:1045C000324639462046FFF7B9FEF8B92368202263
:1045D000DA6121684B6823F0FF7323F48B3323F4F3
:1045E000FF7323F001034B6084F84120002384F81B
:1045F000423084F8403000E0022003B0BDE8F08F84
:104600000220FAE70120F8E70120F6E70120F4E7AD
:1046100000240080034690F84120D2B2202A23D102
:1046200090F84020012A21D0012280F84020242245
:1046300080F841200068026822F0010202601868D8
:10464000026822F480520260186802681143016017
:1046500019680A6842F001020A60202283F84120AA
:10466000002083F840007047022070470220704706
:10467000034690F84120D2B2202A21D190F8402060
:10468000012A1FD0012280F84020242280F84120F6
:104690000068026822F0010202601868026822F4D1
:1046A000706242EA0122026019680A6842F001025F
:1046B0000A60202283F84120002083F840007047E0
:1046C0000220704702207047134BDB6813F0040F81
:1046D00007D1114BDB6803F0070383421AD0012096
:1046E000704710B50C4AD36823F007030343D36027
:1046F000FDF74CFD0446084B5B6813F4005F07D1DF
:10470000FDF744FD001BB0F57A7FF4D9012000E0ED
:10471000002010BD0020704700480258002800F01B
:10472000398338B50446036813F0010F25D0944A45
:10473000136903F03803926A102B15D0182B0FD091
:104740006368B3F5803F3FD0002B53D18C4B1A6880
:1047500022F480321A601A6822F480221A6038E04B
:1047600002F00302022AEBD1854B1B6813F4003FD1
:1047700003D06368002B00F00F83236813F0020F4F
:1047800000F0A1807E4A1369926A13F038035AD070
:10479000182B55D0E368002B00F0DE8078490A68BA
:1047A00022F0190213430B60FDF7F0FC0546744B31
:1047B0001B6813F0040F40F0AD80FDF7E7FC401BD1
:1047C0000228F4D90320EEE26D4A136843F48033E3
:1047D000136063682BB3FDF7D9FC0546684B1B6873
:1047E00013F4003FC9D1FDF7D1FC401B6428F5D973
:1047F0000320D8E2B3F5A02F09D0614B1A6822F448
:1048000080321A601A6822F480221A60E1E75C4B59
:104810001A6842F480221A601A6842F480321A60E0
:10482000D7E7FDF7B3FC0546554B1B6813F4003F73
:10483000A3D0FDF7ABFC401B6428F5D90320B2E2FE
:1048400012F0030FA6D14E4B1B6813F0040F03D0D8
:10485000E368002B00F0A282494A136823F0190391
:10486000E1680B431360FDF791FC0546444B1B6860
:1048700013F0040F06D1FDF789FC401B0228F5D97F
:10488000032090E2FDF79CFC41F20303984212D80A
:104890002269402A07D03A494B6823F47C3343EA23
:1048A00002334B600FE0364A536823F47C3343F401
:1048B0000033536007E0324A536823F0FE43216916
:1048C00043EA01635360236813F0100F00F08880FF
:1048D0002B4A136903F03803926A082B56D0182B21
:1048E00050D0E369002B00F0B880254A136843F0EC
:1048F00080031360FDF74AFC0546214B1B6813F447
:10490000807F40F08880FDF741FC401B0228F4D9ED
:10491000032048E2FDF754FC41F20303984212D809
:104920002269402A07D016494B6823F47C3343EAB6
:1049300002334B60C7E7124A536823F47C3343F4D5
:1049400000335360BFE70E4A536823F0FE432169EA
:1049500043EA01635360B6E7094A136823F0010391
:104960001360FDF713FC0546054B1B6813F0040F9D
:10497000A9D0FDF70BFC401B0228F5D9032012E259
:104980000044025802F00302012AAAD1A14B1B687D
:1049900013F4807F03D0E369802B40F00182FDF7A0
:1049A0000FFC41F20303984212D8226A202A07D052
:1049B00098494B6823F0F84343EA82634B600FE069
:1049C000944A536823F0F84343F08043536007E070
:1049D000904AD36823F07C53216A43EA0163D36091
:1049E000236813F0080F60D06369002B49D0894A0F
:1049F000536F43F001035367FDF7C8FB0546854B32
:104A00005B6F13F0020F50D1FDF7C0FB401B022873
:104A1000F5D90320C7E1FDF7D3FB41F20303984228
:104A200012D8226A202A07D07A494B6823F0F8432B
:104A300043EA82634B60D3E7764A536823F0F84336
:104A400043F080435360CBE7724AD36823F07C5332
:104A5000216A43EA0163D360C2E76E4A136823F018
:104A600080031360FDF792FB05466A4B1B6813F445
:104A7000807FB5D0FDF78AFB401B0228F5D90320C3
:104A800091E1644A536F23F001035367FDF77EFB06
:104A90000546604B5B6F13F0020F06D0FDF776FB07
:104AA000401B0228F5D903207DE1236813F0200F75
:104AB00029D0A3699BB1574A136843F4805313600C
:104AC000FDF764FB0546534B1B6813F4005F1AD1D6
:104AD000FDF75CFB401B0228F5D9032063E14D4A3A
:104AE000136823F480531360FDF750FB0546494BD0
:104AF0001B6813F4005F06D0FDF748FB401B02283B
:104B0000F5D903204FE1236813F0040F21D1636A24
:104B1000002B00F047813F4A126902F03802182A40
:104B200000F0EE80022B79D03A4A136823F08073AC
:104B30001360FDF72BFB0446364B1B6813F0007F18
:104B400000F0DC80FDF722FB001B0228F4D90320D3
:104B500029E1314A136843F480731360FDF716FBB3
:104B600005462D4B1B6813F4807F06D1FDF70EFB25
:104B7000401B6428F5D9032015E1A368012B0AD056
:104B80000BBB244B1A6F22F001021A671A6F22F036
:104B900004021A6704E01F4A136F43F0010313670E
:104BA000A36833B3FDF7F2FA05461A4B1B6F13F0F7
:104BB000020FACD1FDF7EAFA401B41F2883398426C
:104BC000F3D90320EFE0052B09D0124B1A6F22F026
:104BD00001021A671A6F22F004021A67E0E70D4B10
:104BE0001A6F42F004021A671A6F42F001021A6744
:104BF000D6E7FDF7CBFA0546064B1B6F13F0020F05
:104C000085D0FDF7C3FA401B41F288339842F3D9AF
:104C10000320C8E00044025800480258694A13685B
:104C200023F080731360FDF7B1FA0546654B1B68EE
:104C300013F0007F06D0FDF7A9FA401B0228F5D932
:104C40000320B0E05F4B996A5F4A0A40A16AE06ABC
:104C500041EA00110A439A62226B013AC2F3080248
:104C6000616B0139490289B20A43A16B0139090418
:104C700001F4FE010A43E16B0139090601F0FE412E
:104C80000A431A63DA6A22F00102DA625A6B6FF39E
:104C9000CF02A16C42EAC1025A63DA6A22F00C0226
:104CA000216C0A43DA62DA6A22F00202616C0A437A
:104CB000DA62DA6A42F48032DA62DA6A42F40032A4
:104CC000DA62DA6A42F48022DA62DA6A42F00102D7
:104CD000DA621A6842F080721A60FDF757FA0446E9
:104CE000384B1B6813F0007F06D1FDF74FFA001B0D
:104CF0000228F5D9032056E0002054E0002052E0BD
:104D0000304A916A106B012B4ED001F00303A26A66
:104D100093424BD1C1F30511E36A994248D1C0F3E4
:104D20000802236B013B9A4244D1C0F34622636BD5
:104D3000013B9A4240D1C0F30642A36B013B9A4229
:104D40003CD1C0F30660E36B013B984238D11D4B68
:104D50005B6BC3F3CC03A26C9A4201D1002022E02A
:104D6000184AD36A23F00103D362FDF70FFA054610
:104D7000FDF70CFAA842FBD0124A536B6FF3CF0336
:104D8000A16C43EAC1035363D36A43F00103D362C6
:104D9000002008E001207047012004E0012002E02B
:104DA000012000E0002038BD0120FCE70120FAE7E7
:104DB0000120F8E70120F6E70120F4E70120F2E7FF
:104DC0000120F0E7004402580CFCFFFF754B1B6903
:104DD00003F03803102B00F0DE80182B0FD0002BCF
:104DE00040F0DB806F4B1B6813F0200F00F0D78082
:104DF0006C4B1B68C3F3C1036B48D840704710B4B9
:104E0000684B9A6A02F003029C6AC4F30510D96ADF
:104E100001F001015B6BC3F3CC0301FB03F307EE6D
:104E2000903AF8EE677A14F47C7F77D0012A4AD062
:104E3000022A76D0002A40F091805A4B1B6813F06A
:104E4000200F23D057490A68C2F3C102564BD34002
:104E500007EE103AF8EE476A07EE100AB8EE476A16
:104E600086EE867A0B6BC3F3080306EE903AF8EEF3
:104E7000666A9FED4E6A67EE867A76EEA77AF7EE5F
:104E8000006A77EEA67A27EE277A38E007EE100A56
:104E9000F8EE476A9FED466A86EE267A414B1B6B19
:104EA000C3F3080306EE903AF8EE666A9FED3F6A98
:104EB00067EE867A76EEA77AF7EE006A77EEA67A44
:104EC00027EE277A1BE007EE100AF8EE476A9FEDFF
:104ED000396A86EE267A334B1B6BC3F3080306EE62
:104EE000903AF8EE666A9FED316A67EE867A76EE62
:104EF000A77AF7EE006A77EEA67A27EE277A294B93
:104F00001B6BC3F34623013307EE903AF8EE677A42
:104F1000C7EE276AFCEEE67A17EE900A5DF8044BBE
:104F2000704707EE100AF8EE476A9FED236A86EE97
:104F3000267A1C4B1B6BC3F3080306EE903AF8EE7F
:104F4000666A9FED1A6A67EE867A76EEA77AF7EEC2
:104F5000006A77EEA67A27EE277AD0E707EE100AE6
:104F6000F8EE476A9FED136A86EE267A0D4B1B6BAF
:104F7000C3F3080306EE903AF8EE666A9FED0B6AFB
:104F800067EE867A76EEA77AF7EE006A77EEA67A73
:104F900027EE277AB3E70948704709487047024867
:104FA000704700BF004402580090D0030000003951
:104FB0000024744C0024744A20BCBE4B40787D0110
:104FC00000093D00002800F0328170B50D4604460E
:104FD0009B4B1B6803F00F038B420BD2984A13685C
:104FE00023F00F030B431360136803F00F038B428E
:104FF00040F01F81236813F0040F0CD02269914BFD
:105000009B6903F070039A4205D98E498B6923F09E
:1050100070031A438A61236813F0080F0CD0626989
:10502000884BDB6903F070039A4205D98549CB6947
:1050300023F070031A43CA61236813F0100F0CD0D9
:10504000A269804BDB6903F4E0639A4205D97D498C
:10505000CB6923F4E0631A43CA61236813F0200F7D
:105060000CD0E269774B1B6A03F070039A4205D9B2
:1050700074490B6A23F070031A430A62236813F021
:10508000020F0CD0E2686F4B9B6903F00F039A424A
:1050900005D96C498B6923F00F031A438A61236891
:1050A00013F0010F41D0674A936923F47063A1683C
:1050B0000B4393616368022B0AD0032B27D0012B8B
:1050C0002CD0604A126812F0040F06D10120ADE026
:1050D000126812F4003F00F0AE805A490A6922F0CB
:1050E000070213430B61FDF751F80646554B1B6948
:1050F00003F038036268B3EBC20F16D0FDF746F831
:10510000801B41F288339842F0D903208EE04D4A4B
:10511000126812F0007FE0D1012087E0494A12684E
:1051200012F4807FD9D1012080E0236813F0020FB0
:105130000CD0E268434B9B6903F00F039A4205D2FF
:1051400040498B6923F00F031A438A613C4B1B686B
:1051500003F00F03AB420AD9394A136823F00F0357
:105160002B431360136803F00F03AB4265D1236830
:1051700013F0040F0CD02269324B9B6903F07003CB
:105180009A4205D22F498B6923F070031A438A6132
:10519000236813F0080F0CD062692A4BDB6903F017
:1051A00070039A4205D22749CB6923F070031A4352
:1051B000CA61236813F0100F0CD0A269214BDB6980
:1051C00003F4E0639A4205D21E49CB6923F4E063FD
:1051D0001A43CA61236813F0200F0CD0E269194BFF
:1051E0001B6A03F070039A4205D216490B6A23F03A
:1051F00070031A430A62FFF7E9FD12498B69C3F392
:105200000323114AD35C03F01F03D8408B6903F0DA
:105210000F03D35C03F01F0320FA03F30B4A136060
:105220000B4B18600B4B1868FCF75AFA70BD012045
:1052300070470120FAE70120F8E70120F6E700BFF8
:105240000020005200440258842A01080000002473
:10525000040000240C00002408B5FFF7B7FD0B4A3A
:105260009369C3F303230A49CB5C03F01F0320FABD
:1052700003F3926902F00F02885C00F01F0023FA2A
:1052800000F0044A1060044A136008BD004402584C
:10529000842A0108000000240400002408B5FFF758
:1052A000DBFF054BDB69C3F30213044AD35C03F055
:1052B0001F03D84008BD00BF00440258842A0108DB
:1052C00008B5FFF7C9FF054BDB69C3F30223044AA6
:1052D000D35C03F01F03D84008BD00BF0044025850
:1052E000842A01083F230360114B1A6902F0070268
:1052F00042609A6902F4706282609A6902F00F0259
:10530000C2609A6902F070020261DA6902F070020A
:105310004261DA6902F4E06282611B6A03F07003A1
:10532000C361044B1B6803F00F030B60704700BFA1
:105330000044025800200052404B9B6A03F00303D4
:10534000032B79D070B505460E463C4A136823F00E
:1053500080631360FCF71AFF0446384B1B6813F098
:10536000006F06D0FCF712FF031B022BF5D90320B8
:1053700070BD324B9A6A22F47C32296842EA0132CB
:105380009A626A68013AC2F30802A96801394902BF
:1053900089B20A43E9680139090401F4FE010A43AC
:1053A00029690139090601F0FE410A439A63DA6A64
:1053B00022F0C00269690A43DA62DA6A22F0200246
:1053C000A9690A43DA62DA6A22F01002DA62DA6B59
:1053D0006FF3CF02E96942EAC102DA63DA6A42F0A6
:1053E0001002DA62C6B91A46DB6A43F40023D362BC
:1053F000124A136843F080631360FCF7C7FE04464B
:105400000E4B1B6813F0006F14D1FCF7BFFE001B9E
:105410000228F5D90320ABE7012E05D0074AD36A4D
:1054200043F40013D362E3E7044AD36A43F48013DE
:10543000D362DDE700209BE701207047004402585B
:10544000404B9B6A03F00303032B79D070B50546EC
:105450000E463C4A136823F080531360FCF796FE17
:105460000446384B1B6813F0005F06D0FCF78EFE35
:10547000031B022BF5D9032070BD324B9A6A22F030
:105480007C72296842EA01529A626A68013AC2F360
:105490000802A9680139490289B20A43E968013959
:1054A000090401F4FE010A4329690139090601F0E2
:1054B000FE410A431A64DA6A22F4406269690A43C7
:1054C000DA62DA6A22F40072A9690A43DA62DA6AF5
:1054D00022F48072DA625A6C6FF3CF02E96942EA11
:1054E000C1025A64DA6A42F48072DA62C6B91A46B4
:1054F000DB6A43F48003D362124A136843F080539B
:105500001360FCF743FE04460E4B1B6813F0005F6C
:1055100014D1FCF73BFE001B0228F5D90320ABE7B2
:10552000012E05D0074AD36A43F08073D362E3E7C4
:10553000044AD36A43F40003D362DDE700209BE70B
:105540000120704700440258F8B50446036813F080
:10555000006F30D0836EB3F5001F26D00ED8ABB1EC
:10556000B3F5801F07D102210830FFF7E5FE05469D
:1055700095B12E4621E0012635461EE0B3F5401FC9
:1055800001D1002508E00126354616E0984AD36A85
:1055900043F40033D3620025954A136D23F440137E
:1055A000A16E0B431365002607E002212830FFF7A8
:1055B00047FF0546DCE700263546236813F4807F65
:1055C00014D0A36D042B31D8DFE803F0032229089F
:1055D0000800874AD36A43F40033D3624DBB844A40
:1055E000136D23F00703A16D0B431365236813F4B8
:1055F000007F38D0E36D802B4AD01FD833B3402BC7
:1056000019D1002104F10800FFF796FE054622E0BB
:10561000002104F10800FFF78FFE0546DEE70021B8
:1056200004F12800FFF70CFF0546D7E701263546B1
:10563000DCE72E46DAE70126354614E0C02B0AD017
:10564000B3F5807F07D0012635460CE0684AD36A5F
:1056500043F40033D36215BB654A136D23F4E07342
:10566000E16D0B431365236813F4806F3CD0D4F8CD
:10567000A830B3F5800F2FD016D8F3B1B3F5001FC3
:105680000FD1002104F10800FFF756FE054619E08E
:10569000002104F12800FFF7D3FE0546DBE72E4684
:1056A000E1E7012635461FE0B3F5C00F0AD0B3F598
:1056B000000F07D00126354616E04D4AD36A43F461
:1056C0000033D3627DB94A4A936D23F46003D4F862
:1056D000A8100B43936507E0002104F12800FFF7B1
:1056E000AFFE0546EEE72E46236813F4006F2BD07D
:1056F000D4F8AC30B3F1007F53D00DD8ABB1B3F1D7
:10570000807F06D1002104F10800FFF715FE054651
:1057100010E00126354617E0B3F1407F0AD0B3F11F
:10572000806F07D0012635460EE0314AD36A43F434
:105730000033D362002D3BD12D4A936D23F0E063FB
:10574000D4F8AC100B439365236813F0007F13D09B
:10575000E36C202B36D030D833B1102B2AD1244A19
:10576000D36A43F40033D3629DBB214AD36C23F048
:105770003003E16C0B43D364236813F4805F47D09C
:10578000236EB3F5005F00F08D8027D893B3B3F597
:10579000805F20D1002104F10800FFF7CDFD054610
:1057A0002DE0002104F12800FFF74AFE0546C1E77D
:1057B0002E46C9E701263546DEE7302BD4D0012638
:1057C0003546D9E7022104F10800FFF7B5FD05468B
:1057D000CAE72E46D0E70126354619E0B3F5405F0B
:1057E0000DD0B3F5804F0AD00126354610E000BF3A
:1057F00000440258774AD36A43F40033D362002D41
:1058000057D1744A136D23F4E043216E0B431365A3
:10581000236813F4005F17D0636EB3F5003F59D0CF
:105820004CD843B1B3F5803F45D1012104F10800C4
:10583000FFF782FD0546002D53D1664A136D23F410
:10584000E023616E0B431365236813F4804F19D076
:10585000D4F8B030B3F1005F54D047D843B1B3F1BE
:10586000805F40D1012104F10800FFF765FD054686
:10587000002D4ED1574A936D23F0E043D4F8B01079
:105880000B439365236813F4004F51D0236FB3F19A
:10589000805F40D0B3F1005F55D0002B40D001268F
:1058A000354645E0002104F12800FFF7C9FD054613
:1058B000A5E72E46ACE701263546C5E7B3F5802FB0
:1058C000B9D0B3F5A02FB6D0B3F5403FB3D0012681
:1058D0003546B9E7012104F12800FFF7B1FD05467F
:1058E000A9E72E46B0E701263546CBE7B3F1804F56
:1058F000BED0B3F1A04FBBD0B3F1405FB8D001260A
:105900003546BFE7012104F12800FFF799FD054660
:10591000AEE72E46B6E72F4AD36A43F40033D3628C
:10592000C5B92C4A136D23F04053216F0B43136507
:10593000236813F0807F1CD0A36C032B44D8DFE8CE
:1059400003F0100B3C10012104F10800FFF7F4FCF8
:105950000546E5E72E46EBE71E4AD36A43F40033DB
:10596000D362A5BB1B4AD36C23F00303A16C0B438A
:10597000D364236813F4800F2ED1236813F0010F32
:1059800000F0A680E36F282B00F2A080DFE803F090
:105990008E9E9E9E9E9E9E9E889E9E9E9E9E9E9E4D
:1059A000979E9E9E9E9E9E9E8E9E9E9E9E9E9E9E2E
:1059B0008E9E9E9E9E9E9E9E8E00022104F1080059
:1059C000FFF7BAFC0546CCE701263546D1E72E465F
:1059D000CFE700BF00440258584A136843F480736D
:1059E0001360FCF7D3FB0746544B1B6813F4807F0E
:1059F00005D1FCF7CBFBC01B6428F5D90325002D8E
:105A00004AD14F4B1B6FD4F8B420534013F4407F5E
:105A10000CD04B4B1A6F22F44072196F41F4803155
:105A20001967196F21F4803119671A67D4F8B430F7
:105A3000B3F5807F15D08DBBD4F8B43003F4407239
:105A4000B2F5407F1ED03E4A136923F47C531361A4
:105A50003B490B6FD4F8B420C2F30B0213430B671E
:105A60008BE7FCF793FB0746354B1B6F13F0020FD8
:105A7000E1D1FCF78BFBC01B41F288339842F3D98C
:105A80000325D8E72E48026922F47C522D4901EA09
:105A9000131313430361DBE72E466EE72E466CE7D4
:105AA000012104F10800FFF747FC0546E5B9244A47
:105AB000536D23F03803E16F0B43536508E0012178
:105AC00004F12800FFF7BCFC0546EFE70126354648
:105AD000236813F0020F17D0A36F052B29D8DFE836
:105AE00003F00B05210B0B0B2E46F1E7012104F10E
:105AF0000800FFF721FC0546F5B9114A536D23F064
