:020000040800F2
:100000000000082461130008AD0B0008AF0B0008C6
:10001000B10B0008B30B0008B50B0008000000008E
:10002000000000000000000000000000716C0008EB
:10003000B70B000800000000116D0008756900088A
:10004000B5130008B5130008B5130008B513000870
:10005000B5130008B5130008B5130008B513000860
:10006000B5130008B5130008B5130008B513000850
:10007000B5130008B5130008B5130008B513000840
:10008000B5130008B5130008B5130008B513000830
:10009000B90B0008B5130008B5130008B513000824
:1000A000B5130008B5130008B5130008B513000810
:1000B000B5130008B5130008B5130008B513000800
:1000C000B5130008B5130008B5130008B5130008F0
:1000D000B5130008C90B0008B5130008B5130008D4
:1000E000B5130008B513000800000000B5130008A0
:1000F000D90B0008B5130008B5130008B5130008A4
:10010000B5130008B5130008E90B0008B513000883
:10011000B5130008B5130008B5130008B51300089F
:10012000B5130008B5130008B5130008B51300088F
:10013000B5130008B5130008B5130008B51300087F
:1001400000000000000000000000000000000000AF
:10015000B5130008B5130008B5130008B51300085F
:10016000B5130008B5130008B5130008B51300084F
:10017000B5130008B5130008B5130008B51300083F
:10018000B5130008B5130008B5130008B51300082F
:10019000B5130008B5130008B5130008B51300081F
:1001A000B5130008B5130008B5130008B51300080F
:1001B000B5130008B5130008B5130008B5130008FF
:1001C000B5130008B5130008B5130008B5130008EF
:1001D000B5130008B5130008B5130008B5130008DF
:1001E000B5130008B5130008B5130008B5130008CF
:1001F000B5130008B5130008B5130008B5130008BF
:10020000B5130008B5130008B5130008B5130008AE
:10021000B5130008B5130008B5130008B51300089E
:10022000B5130008B5130008B5130008000000005E
:10023000B5130008B513000800000000B51300084E
:10024000B5130008B5130008B5130008B51300086E
:10025000B5130008B5130008B5130008B51300085E
:10026000B5130008B5130008B5130008B51300084E
:10027000B5130008B5130008B5130008000000000E
:10028000B5130008B5130008B513000800000000FE
:0802900000000000B513000896
:1002C00053B94AB9002908BF00281CBF4FF0FF31BD
:1002D0004FF0FF3000F00CB8ADF1080C6DE904CE22
:1002E00008F036FFDDF804E0DDE9022304B07047D2
:1002F000704700BF844641EA000313F003036DD149
:10030000403A41D351F8043B40F8043B51F8043BD8
:1003100040F8043B51F8043B40F8043B51F8043BDF
:1003200040F8043B51F8043B40F8043B51F8043BCF
:1003300040F8043B51F8043B40F8043B51F8043BBF
:1003400040F8043B51F8043B40F8043B51F8043BAF
:1003500040F8043B51F8043B40F8043B51F8043B9F
:1003600040F8043B51F8043B40F8043B51F8043B8F
:1003700040F8043B51F8043B40F8043B51F8043B7F
:1003800040F8043B403ABDD2303211D351F8043B1F
:1003900040F8043B51F8043B40F8043B51F8043B5F
:1003A00040F8043B51F8043B40F8043B103AEDD2CE
:1003B0000C3205D351F8043B40F8043B043AF9D21F
:1003C000043208D0D2071CBF11F8013B00F8013BF2
:1003D00001D30B8803806046704700BF082A13D3FF
:1003E0008B078DD010F003038AD0C3F10403D21A17
:1003F000DB071CBF11F8013B00F8013B80D331F84B
:10040000023B20F8023B7BE7043AD9D3013A11F8CA
:10041000013B00F8013BF9D20B7803704B78437035
:100420008B78837060467047000000000000000079
:1004300000000000000000000000000000000000BC
:1004400030B490F800F020F007016FF0000C10F0CD
:10045000070491F820F040F048804FF000046FF05E
:100460000700D1E9002391F840F000F1080082FA7A
:100470004CF2A4FA8CF283FA4CF3A2FA8CF34BBB45
:10048000D1E9022382FA4CF200F10800A4FA8CF2BE
:1004900083FA4CF3A2FA8CF3E3B9D1E9042382FA8C
:1004A0004CF200F10800A4FA8CF283FA4CF3A2FAA1
:1004B0008CF37BB9D1E9062301F1200182FA4CF2D9
:1004C00000F10800A4FA8CF283FA4CF3A2FA8CF340
:1004D000002BC6D0002A04BF04301A4612BAB2FA62
:1004E00082F200EBD20030BC7047D1E9002304F067
:1004F0000305C4F100004FEAC50514F0040F91F89C
:1005000040F00CFA05F562EA05021CBF63EA050338
:1005100062464FF00004AAE70348044B834202D02E
:10052000034B03B118477047780500247805002471
:10053000000000000548064B1B1AD90F01EBA30170
:10054000491002D0034B03B11847704778050024C7
:10055000780500240000000010B5064C237843B94C
:10056000FFF7DAFF044B13B10448AFF30080012317
:10057000237010BD7805002400000000D89A000800
:1005800008B5054B1BB105490548AFF30080BDE830
:100590000840FFF7CFBF00BF000000007C0500242B
:1005A000D89A000808B51548154B036000228260F0
:1005B000C260012303744274827402214161836129
:1005C0000C21C1610521016243628362C36203633E
:1005D00042638363C2630423036443648364C36428
:1005E000026543658365C36503664266836601F001
:1005F000FFFB00B908BD00F0C5F9FBE79405002436
:1006000000A4004010B5B8B00446002133913491E5
:10061000359136913791C02202A808F0F7FE226882
:10062000264B9A4201D038B010BD4FF4004200234F
:10063000CDE902230223049348220592069319224E
:1006400007920893C02309934FF000531E9302A80A
:1006500003F05CF978BB1A4BD3F8EC2042F48072BB
:10066000C3F8EC20D3F8EC2002F480720092009AD8
:10067000D3F8E02042F00202C3F8E020D3F8E030E3
:1006800003F002030193019B4FF440533393022381
:1006900034930024359436940923379333A90948B9
:1006A00002F020F822460521142000F03BFF142020
:1006B00000F048FFB7E700F065F9CCE700A4004080
:1006C000004402580004025808B5012006F0F5F96C
:1006D000FBE7000000B583B000224021022006F0B5
:1006E00097FE0A4B18600A4A00210A4806F086F96C
:1006F000094B1860002301930322009280220749CE
:10070000074807F0BCFA03B05DF804FB1857002453
:10071000BC9B0008C906000834060024549B00084E
:10072000E58F00082DE9F0418CB00024079408946F
:1007300009940A940B94424BD3F8E02042F0100243
:10074000C3F8E020D3F8E02002F010020192019AF1
:10075000D3F8E02042F00402C3F8E020D3F8E02010
:1007600002F004020292029AD3F8E02042F08002E2
:10077000C3F8E020D3F8E02002F080020392039A4D
:10078000D3F8E02042F00102C3F8E020D3F8E020E3
:1007900002F001020492049AD3F8E02042F002022F
:1007A000C3F8E020D3F8E02002F002020592059A97
:1007B000D3F8E02042F00802C3F8E020D3F8E0309C
:1007C00003F008030693069BDFF880802246702121
:1007D000404602F097F81B4F224642F20701384686
:1007E00002F090F8184E22464FF40041304602F0D5
:1007F00089F8702307930125089509940A9407A99D
:10080000404601F06FFF42F20703079308950994F1
:100810000A9407A9384601F065FF4FF40043079397
:10082000089509940A9407A9304601F05BFF214618
:100830004FF0806000F01AFE0CB0BDE8F08100BF00
:100840000044025800080258000C025800100258D8
:1008500008B51248124B0360124B436000238360BB
:100860000122C260036143618361C361036202F0DC
:100870004FF850B90021094802F0AEF840B9002104
:10088000064802F0D7F830B908BD00F07BF8F1E770
:1008900000F078F8F3E700F075F8F5E73806002483
:1008A000005400405919400010B588B0002303934C
:1008B00004930593069307930268144B9A4201D060
:1008C00008B010BD124CD4F8E03043F00203C4F875
:1008D000E030D4F8E03003F002030193019BC02321
:1008E0000393122304930423079303A9094801F0F7
:1008F000F9FED4F8E83043F40013C4F8E830D4F833
:10090000E83003F400130293029BD9E7005400403F
:10091000004402580004025810B584B0002400942A
:1009200001940294039400F011FE01238DF800302D
:100930008DF8014001941F228DF8082087228DF840
:1009400009208DF80A408DF80B408DF80C308DF899
:100950000D308DF80E408DF80F40684600F014FE03
:10096000042000F001FE04B010BD000008B50268CC
:10097000034B9A4200D008BD00F04CFDFBE700BFDE
:10098000000C004072B6FEE700B59DB04C2200217D
:1009900009A808F03BFD2022002101A808F036FD3F
:1009A000022002F073F800230093254BDA6A22F04C
:1009B0000102DA62DB6A03F001030093214A9369C2
:1009C00023F4404343F480439361936903F4404329
:1009D0000093009B1B4B9B6913F4005FFAD001232B
:1009E00009934FF480330A930223129313931493C1
:1009F0000C221592169304211791189119921A93AB
:100A000000231B9309A802F06BF8A8B93F230193B8
:100A100003230293002103910823049340230593A9
:100A200006934FF480620792089301A802F0ACFC91
:100A300020B91DB05DF804FBFFF7A4FFFFF7A2FF8C
:100A4000000400580048025800B5B1B0C02200218F
:100A5000684608F0DBFC09220023CDE900230223CD
:100A60000A930C220B920C9303230D930E934FF4D5
:100A700040630F934FF40073109310231F934FF4B0
:100A800080532193684602F041FF10B931B05DF800
:100A900004FBFFF777FF08B5FFF73EFF00F08CFC83
:100AA000FFF772FFFFF7D0FFFFF73CFE00F002FBFD
:100AB000FFF7CEFE00F080FB00F0DAFB00F046F915
:100AC00000F076F900F0A6F9FFF76CFD05F05EFF87
:100AD000FFF700FE05F06CFFFEE7000000B583B0F5
:100AE0000A4BD3F8F42042F00202C3F8F420D3F802
:100AF000F43003F002030193019B00220F216FF0F9
:100B0000010000F00FFD03B05DF804FB0044025843
:100B10000F2801D90120704710B58AB00446002281
:100B20000146322000F0FEFC322000F00BFD1A4B93
:100B30001C601A4BD3F8E82042F00802C3F8E82002
:100B4000D3F8E83003F008030093009B01A902A842
:100B500002F0AAFD079BBBB902F082FD0346104AD2
:100B6000A2FB03239B0C013B0E480F4A026040F29C
:100B7000E732C260436000230361836004F036F90A
:100B800030B101200AB010BD02F06AFD4300E6E773
:100B9000044803F09FFFF5E70C00002400440258CE
:100BA00083DE1B438C060024000C0040FEE7FEE7BA
:100BB000FEE7FEE7FEE7704708B5024801F002FCD9
:100BC00008BD00BF9405002408B5024804F03CFCB1
:100BD00008BD00BF5808002408B5024803F0C6FF4E
:100BE00008BD00BFDC06002408B5024803F0BEFFC4
:100BF00008BD00BF8C06002410B503460C4A0D4901
:100C00000D48006840B10C4800680344521A9342F2
:100C100006D8094A136010BD0748084C0460F2E783
:100C200008F07CFC0C2303604FF0FF30F3E700BFBB
:100C30000000082400040000D8060024B05A002454
:100C4000314AD2F8883043F47003C2F888302F4B11
:100C50001B6803F00F03062B06D82C4A136823F0F9
:100C60000F0343F007031360294B1A6842F0010297
:100C70001A6000221A611968264A0A401A60234B3A
:100C80001B6813F0080F06D0204A136823F00F03E7
:100C900043F0070313601E4B00229A61DA611A6267
:100CA0001D4999621D49D9621D4919635A639963A7
:100CB000DA6319645A64196821F4802119601A668C
:100CC000184B1B686FF30F03B3F1005F03D2164B91
:100CD0000122C3F808210E4BD3F8D43013F4805FFF
:100CE00010D10B4BD3F8D42042F48052C3F8D42057
:100CF0000E4A43F2D2011160D3F8D42022F480527C
:100D0000C3F8D420704700BF00ED00E0002000527F
:100D1000004402587FEDF6EA000202020000FF01E3
:100D2000800201010010005C008000510040005270
:100D3000054AD36843F00203D360034B5B6813F4A6
:100D4000005FFAD0704700BF0048025800B58DB070
:100D50002422002103A808F059FB002300930193EB
:100D600002931148114A0260436083604FF6FF729C
:100D7000C26003618361012303930593099303A96F
:100D800004F094F850B90023009302936946064892
:100D900004F074FA28B90DB05DF804FBFFF7F2FD1A
:100DA000F1E7FFF7EFFDF6E77407002400040040C9
:100DB00000B58DB02422002103A808F027FB0023F2
:100DC0000093019302931148114A026043608360CB
:100DD0004FF6FF72C26003618361012303930593A1
:100DE000099303A904F062F850B900230093029319
:100DF0006946064804F042FA28B90DB05DF804FBD4
:100E0000FFF7C0FDF1E7FFF7BDFDF6E72807002477
:100E10000008004000B589B00023049305930693B1
:100E200007930193029303931548164A0260EF2239
:100E30004260836041F28732C26003614361836133
:100E400003F0D4FF98B94FF48053049304A90C48DD
:100E500004F078F970B9002301930293039301A978
:100E6000074804F00BFA40B909B05DF804FBFFF73E
:100E700089FDE8E7FFF786FDEDE7FFF783FDF3E780
:100E8000DC0600240004014082B00368114A93424A
:100E900004D0B3F1804F0FD002B070470E4BD3F89F
:100EA000F02042F00102C3F8F020D3F8F03003F054
:100EB00001030093009BEFE7074BD3F8E82042F0D3
:100EC0000102C3F8E820D3F8E83003F001030193EE
:100ED000019BE1E7000001400044025800B58BB0DF
:100EE0000023059306930793089309930368284A00
:100EF000934205D0274A934225D00BB05DF804FBFE
:100F0000254BD3F8E82042F00202C3F8E820D3F8DA
:100F1000E82002F002020192019AD3F8E02042F0A8
:100F20000102C3F8E020D3F8E03003F0010302939C
:100F3000029BC023059302230693099305A9174832
:100F400001F0D0FBD9E7144BD3F8E82042F00402BB
:100F5000C3F8E820D3F8E82002F004020392039AD1
:100F6000D3F8E02042F00802C3F8E020D3F8E030E4
:100F700003F008030493049B4FF4405305930223AA
:100F80000693099305A9064801F0ACFBB5E700BF3D
:100F900000040040000800400044025800000258CD
:100FA000000C025802680F4B9A4200D0704700B5FF
:100FB00083B00D4BD3F8F02042F00202C3F8F020CA
:100FC000D3F8F03003F002030193019B00220521C6
:100FD0002C2000F0A7FA2C2000F0B4FA03B05DF842
:100FE00004FB00BF000401400044025830B589B042
:100FF0000023039304930593069307930368284AF9
:10100000934204D0B3F1804F1AD009B030BD254BC4
:10101000D3F8E02042F01002C3F8E020D3F8E0302B
:1010200003F010030093009B4FF4D4430393022377
:1010300004930123079303A91B4801F053FBE4E742
:10104000184BD3F8E02042F00102C3F8E020D3F8B7
:10105000E02002F001020192019AD3F8E02042F070
:101060000202C3F8E020D3F8E03003F00203029359
:10107000029B03230393022504950124079403A9EB
:101080000A4801F02FFB4FF44063039304950023BB
:1010900005930693079403A9054801F023FBB4E7E1
:1010A000000001400044025800100258000002589D
:1010B0000004025810B596B00024139414941594AB
:1010C0000C940D940E940F941094119412942C225D
:1010D000214601A808F09AF93548364B0360EF2302
:1010E0004360846044F61F63C360046144618461AB
:1010F00003F0ACFE002845D10023139314931593FD
:1011000013A92B4804F0BAF800283ED160230C93B1
:1011100000220D920E920F921092119212920CA92F
:10112000234803F065FF002832D104220CA920488F
:1011300003F05EFF00282ED108220CA91C4803F002
:1011400057FF58BB0C220CA9194803F051FF40BBB4
:101150000023019302930393049305934FF40052E9
:101160000692079308934FF0007209920A930B932B
:1011700001A90F4804F0D2F8B0B90D48FFF736FFC7
:1011800016B010BDFFF7FEFBB6E7FFF7FBFBBDE7B0
:10119000FFF7F8FBC9E7FFF7F5FBCDE7FFF7F2FB39
:1011A000D0E7FFF7EFFBD3E7FFF7ECFBE5E700BF86
:1011B0000C0800240000014000B58BB00023079309
:1011C0000893099300930193029303930493059367
:1011D000069326484FF080420260EF22426083600F
:1011E00044F61F62C2600361836103F02FFE50BBAF
:1011F00000230793099307A91C4804F03FF828BB74
:1012000060230093002201920292049269461748DB
:1012100003F0EEFEE8B904226946144803F0E8FE44
:10122000D0B908226946114803F0E2FEB8B90C2291
:1012300069460E4803F0DCFEA0B90C48FFF7D6FE65
:101240000BB05DF804FBFFF79DFBD1E7FFF79AFBBE
:10125000D6E7FFF797FBDEE7FFF794FBE1E7FFF741
:1012600091FBE4E7FFF78EFBE7E700BFC007002430
:1012700008B51748174B03604FF4E1334360002370
:101280008360C36003610C2242618361C3610362B6
:101290004362836205F0E5F970B900210C4805F05E
:1012A0001FFB60B900210A4805F03FFB50B9084810
:1012B00005F0F7FA48B908BDFFF764FBEDE7FFF763
:1012C00061FBEFE7FFF75EFBF1E7FFF75BFBF2E7A0
:1012D000580800240010014000B589B00023039392
:1012E0000493059306930793026803F1804303F583
:1012F00088339A4202D009B05DF804FB164BD3F84C
:10130000F02042F01002C3F8F020D3F8F02002F0F1
:1013100010020192019AD3F8E02042F00202C3F8D1
:10132000E020D3F8E03003F002030293029B4FF475
:1013300040430393022304930423079303A907481C
:1013400001F0D0F900220521252000F0EBF825203E
:1013500000F0F8F8CFE700BF00440258000402583C
:10136000DFF838D0FFF7E4FCFFF76AFC0C480D49C2
:101370000D4A002302E0D458C4500433C4188C42F0
:10138000F9D30A4A0A4C002301E013600432A24256
:10139000FBD308F0C9F8FFF77EFB70470000082474
:1013A0000000002478050024849C000878050024AF
:1013B000AC5A0024FEE7000010B5032000F0A0F8AE
:1013C00001F0E6FE0F498B69C3F303230E4AD35C99
:1013D00003F01F03D8408B6903F00F03D35C03F0C5
:1013E0001F0320FA03F3094A1360094B18600F200A
:1013F000FFF78EFB10B10124204610BD0446FFF715
:101400006DFBF9E700440258E09B0008000000244F
:1014100004000024034B1B78034A11680B4413603B
:10142000704700BF08000024EC080024014B186836
:10143000704700BFEC08002438B50446FFF7F6FFFC
:101440000546B4F1FF3F02D0044B1B781C44FFF764
:10145000EDFF401BA042FAD338BD00BF08000024B6
:10146000014B1868000C70470010005C034A536879
:1014700023EA00030B435360704700BF0004005889
:10148000002807DB00F01F02400901239340024AB5
:1014900042F82030704700BF00E100E0002804DB84
:1014A0000901C9B2044B1954704700F00F0009013B
:1014B000C9B2024B1954704700E400E014ED00E09B
:1014C00000B500F00700C0F1070CBCF1040F28BF05
:1014D0004FF0040C031D062B0FD9C31E4FF0FF3E27
:1014E0000EFA0CF021EA000199400EFA03FE22EAFE
:1014F0000E0241EA02005DF804FB0023EEE7000063
:101500000649CB6823F4E0631B041B0C000200F4C3
:10151000E0600343024A1A43CA60704700ED00E0EE
:101520000000FA0510B50446054BD868C0F3022048
:10153000FFF7C6FF01462046FFF7B0FF10BD00BF12
:1015400000ED00E008B5FFF79BFF08BDBFF35F8F1C
:10155000044B5A6A22F480325A620022C3F8942063
:10156000704700BF00ED00E040F00100054BC3F8FC
:1015700094005A6A42F480325A62BFF34F8FBFF32D
:101580006F8F704700ED00E04378144AC2F898303E
:10159000D2F8A03023F00103C2F8A0304368C2F8AB
:1015A0009C30017BC37A1B0643EA0173817A43EACC
:1015B000C143417B43EA8143817B43EA4143C17B91
:1015C00043EA0143417A43EA0123017A43EA4103B2
:1015D00001780B43C2F8A030704700BF00ED00E077
:1015E00070B50446FFF722FF002C00F091810546FC
:1015F00094F83530DBB2022B06D0802363650023DC
:1016000084F83430012070BD23688C498C4A9342A1
:1016100018BF8B4230D0183293422DD018329342EB
:101620002AD01832934227D01832934224D018324D
:10163000934221D0183293421ED002F55672934243
:101640001AD01832934217D01832934214D018325D
:10165000934211D0183293420ED0183293420BD0DD
:101660001832934208D01832934205D01A6822F0FB
:101670000E021A60266809E01A6822F01E021A603B
:101680002268536923F080035361266823686B49FD
:101690006B4A934218BF8B4242D0183293423FD0DC
:1016A000183293423CD01832934239D018329342C8
:1016B00036D01832934233D01832934230D002F5EC
:1016C000567293422CD01832934229D0183293424A
:1016D00026D01832934223D01832934220D01832A9
:1016E00093421DD0183293421AD01832934217D029
:1016F000544A934214D01432934211D0143293427C
:101700000ED0143293420BD01432934208D01432CC
:10171000934205D01432934202D01432934204D142
:10172000226E136823F48073136023684349444A8C
:10173000934218BF8B422FD0183293422CD01832CC
:10174000934229D01832934226D01832934223D0A4
:101750001832934220D0183293421DD002F55672AF
:10176000934219D01832934216D01832934213D0B4
:101770001832934210D0183293420DD0183293424F
:101780000AD01832934207D01832934204D01A6814
:1017900022F001021A6003E01A6822F001021A60C6
:1017A000336813F0010F0ED0FFF740FE431B052BEB
:1017B000F6D920236365032384F83530002384F8A9
:1017C000343001201FE723681C491D4A934218BF8B
:1017D0008B4239D01832934236D01832934233D0EC
:1017E0001832934230D0183293422DD0183293429F
:1017F0002AD01832934227D002F55672934223D052
:101800001832934220D0183293421DD0183293429E
:101810001AD01832934217D01832934214D018328B
:10182000934211D0183293420ED0A16DE36D03F0B4
:101830001F02012393404B600DE000BF10000240E7
:101840002800024008540258A16DE36D03F01F0206
:101850003F2393408B6023682E492F4A934218BF41
:101860008B4242D0183293423FD0183293423CD040
:101870001832934239D01832934236D018329342FC
:1018800033D01832934230D002F5567293422CD0A6
:101890001832934229D01832934226D018329342FC
:1018A00023D01832934220D0183293421DD01832E0
:1018B00093421AD01832934217D0184A934214D048
:1018C0001432934211D0143293420ED01432934208
:1018D0000BD01432934208D01432934205D0143204
:1018E000934202D0143293420BD1636EA26E5A60BF
:1018F000E36E33B11A6822F480721A60236F626F4C
:101900005A60012384F83530002084F834007AE6E8
:10191000012078E6100002402800024008540258D6
:10192000002800F0288108B5024690F83530DBB277
:10193000022B03D080234365012008BD0368904833
:1019400090498B4218BF83420CBF0120002065D014
:1019500018318B4262D018318B425FD018318B42E4
:101960005CD018318B4259D018318B4256D0183187
:101970008B4253D001F556718B424FD018318B42B8
:101980004CD018318B4249D018318B4246D0183197
:101990008B4243D018318B4240D018318B423DD01E
:1019A00018318B423AD0196821F00E011960136882
:1019B000734874498B4218BF83426AD072498B4284
:1019C00067D018318B4264D018318B4261D0183106
:1019D0008B425ED018318B425BD018318B4258D08D
:1019E00001F556718B4254D018318B4251D01831C9
:1019F0008B424ED018318B424BD018318B4248D09D
:101A000018318B4245D018318B4242D018318B426D
:101A10003FD0196821F0010119603EE0042182F8ED
:101A2000351080BB584A93422DD0183293422AD0A9
:101A30001832934227D01832934224D0183293425E
:101A400021D0183293421ED002F5567293421AD01A
:101A50001832934217D01832934214D0183293425E
:101A600011D0183293420ED0183293420BD0183254
:101A7000934208D01832934205D01A6822F001022E
:101A80001A60002059E71A6822F001021A6000204B
:101A900053E7196821F00101196013683848394982
:101AA0008B4218BF834242D018318B423FD018314D
:101AB0008B423CD018318B4239D018318B4236D012
:101AC00018318B4233D018318B4230D001F556712A
:101AD0008B422CD018318B4229D018318B4226D022
:101AE00018318B4223D018318B4220D018318B42D1
:101AF0001DD018318B421AD018318B4217D0234990
:101B00008B4214D014318B4211D014318B420ED041
:101B100014318B420BD014318B4208D014318B42DC
:101B200005D014318B4202D014318B4217D1116E83
:101B30000B6823F480730B60906DD36D03F01F016D
:101B400001238B404360536E916E5960D36E33B165
:101B5000196821F480711960136F516F5960012366
:101B600082F83530002382F83430136D2BB11046E3
:101B700098470020E1E6012070470020DDE600BF25
:101B80001000024028000240400002400854025861
:101B900030B4416B0468D4F884306F4A134043EA90
:101BA0008103C4F884300468D4F8843023F47F03BC
:101BB000856B43EA0543C4F88430836B0B440468A7
:101BC000D4F88810114041EA8301C4F888100468F1
:101BD000D4F8881021F4FE01C56B41EA0541C4F830
:101BE0008810C16B03EB41030468D4F8A0101140C6
:101BF00041EA8301C4F8A0100468D4F8A01021F4CD
:101C0000FE01056C41EA0541C4F8A010016C446C6A
:101C100004FB01330468D4F8B010114041EA830199
:101C2000C4F8B0100468D4F8B01021F4FE01856C3B
:101C300041EA0541C4F8B010816CC46C04FB013367
:101C40000468D4F8AC10114041EA8301C4F8AC1028
:101C5000016D446D04FB01330468D4F8F0101140A9
:101C600041EA8301C4F8F0100468D4F8F01021F4BC
:101C70007C11856D41EA0541C4F8F010816D03EBDC
:101C800041030468D4F8C0100A4042EA8303C4F850
:101C9000C0300268D2F8C03023F47C13C16D43EA2F
:101CA0000143C2F8C0300268D2F8C03023F07C5340
:101CB000016E43EA0163C2F8C030436B274A1A44FD
:101CC0009200C266836B02EB83030367C16B03EB75
:101CD000C1034367016C446C04FB01F103EB810316
:101CE0008367816CC46C04FB01F103EB8103C36760
:101CF000016D446D04FB01F103EB8103C0F88030FA
:101D0000816D03EBC103C0F88430816EC46D01FBAB
:101D100004FC03EB8C03C0F88830046E04FB01F173
:101D200003EB8103C0F890300D498B420DD9D0F8F8
:101D30009C3043F02003C0F89C30032380F8983097
:101D4000012007E0002342F8043BD0F89030934292
:101D5000F8D8002030BC70470300FFFF002B0010B4
:101D6000FCD3004070B54C68FCB90D698C68254304
:101D70000C6845EA84450E6ACC6944EA06648E69BB
:101D800034434E693443CE6844EA0644D0F8846054
:101D9000806E00FB03F306EB830E46F82350CEF86B
:101DA00004400EF1080E002019E00C698D682543EF
:101DB0000C68254345F08045DDE702EB000C9CF8FC
:101DC00003409CF802301B0443EA04639CF8014082
:101DD00043EA0423145C23434EF8043B0430CB68ED
:101DE000024CE35C8342E8D870BD00BFF09B000862
:101DF00030B595B004464C22A04901A8FEF77AFA06
:101E0000002C00F0388123689D4A934220D094F83A
:101E100098300BB32268936923F010039361FFF7A6
:101E200005FB054623689A6912F0080F1AD0FFF7E0
:101E3000FDFA431B0A2BF5D9D4F89C3043F001037B
:101E4000C4F89C30032384F89830012015B030BDCD
:101E500003F580736360DAE784F899302046FEF773
:101E6000D1FBD7E79A6942F001029A61FFF7DEFAE7
:101E7000054623689A6912F0010F0FD1FFF7D6FAD1
:101E8000401B0A28F5D9D4F89C3043F00103C4F86C
:101E90009C30032384F898300120D7E79A6942F0F8
:101EA00002029A61237C012B40D02268936943F09F
:101EB00040039361637C012B3ED02268936923F435
:101EC00080439361A37C012B3CD02268936943F447
:101ED000805393612268936923F44073A1680B4394
:101EE00093612268936923F0A403936122681369C4
:101EF00023F010031361E368012B29D0002B2CD0B1
:101F0000022B00F09B802268936943F08003936169
:101F10002268136943F010031361E368032B1CD19B
:101F20002268936943F02003936116E02268936965
:101F300023F040039361BDE72268936943F4804333
:101F40009361BFE72268936923F480539361C1E7EB
:101F50002268936943F004039361A3695A1EE369FD
:101F6000013B1B0243EA4263226A013A134362695E
:101F7000013A216843EA0243CB61A368B3F5407F8D
:101F800062D0236E33B12268D2F8C030616E0B4349
:101F9000C2F8C030E36D226ED3420DD02168D1F873
:101FA000C83023F00703A26E14A800EB820252F897
:101FB0004C2C1343C1F8C830236C6BB12168D1F8A5
:101FC000BC3023F00703626C14A800EB820252F8C5
:101FD0004C2C1343C1F8BC30A36C73B12168D1F809
:101FE000BC3023F07003E26C14A800EB820252F8BC
:101FF0004C2C43EA0213C1F8BC30236D73B1216845
:10200000D1F8BC3023F4E063626D14A800EB8202C7
:1020100052F84C2C43EA0223C1F8BC302268184B1A
:102020009A4222D00023C4F89430C4F89C30012393
:1020300084F898302046FFF7ABFD07E722689369E4
:1020400043F02003936188E7A36A013BE26A013A07
:1020500043EA0223226B013A43EA0213626A013A1D
:10206000216843EA0243CB608BE76268936823F000
:1020700003039360D6E70120E8E600BFF09A00086A
:1020800000A0004090F89830DBB2012B07D0D0F8C8
:102090009C3043F00403C0F89C30012070470223B9
:1020A00080F898300268936923F00103936100235C
:1020B000C0F89C301846704738B5044690F8983000
:1020C000DBB2022B2BD10368D3F8C00010F07C5F89
:1020D0000CD0D3F8C40010F4001F0FD0D4F89C30FB
:1020E00043F40073C4F89C3001201FE0D4F89C3006
:1020F00043F02003C4F89C30012017E0D3F8C4500B
:10210000C5F304452B462046FFF72CFE2268012329
:10211000AB40C2F8D030C4F89430002006E0D0F8CC
:102120009C3043F00803C0F89C30012038BD00000B
:1021300090F898C05FFA8CFCBCF1020F40F0DF8091
:1021400070B540290CD041293DD0046D8C426DD82A
:10215000D0F89C3043F02003C0F89C300120C1E04F
:102160000468D4F8A05015F4FE0F0CD0D4F8A45095
:1021700015F07F0F0FD1D0F89C3043F48073C0F876
:102180009C300120AEE0D0F89C3043F02003C0F832
:102190009C300120A6E0D4F8A46016F0807604D02C
:1021A000D4F8A050002D0CDB0026D4F8A440C4F3D2
:1021B00005242644456F446C06FB04F405EB840EAD
:1021C0003BE00126F1E70468D4F8B05015F4FE0FA7
:1021D0000CD0D4F8B45015F07F0F0FD1D0F89C304C
:1021E00043F48073C0F89C3001207BE0D0F89C3031
:1021F00043F02003C0F89C30012073E0D4F8B460B1
:1022000016F0807604D0D4F8B050002D0CDB0026F8
:10221000D4F8B440C4F305242644856FC46C06FB8F
:1022200004F405EB840E08E00126F1E7C56F446D68
:1022300001FB04F405EB840E0026DEF8004004F0F8
:102240008044546064BBDEF80040C4F38A441460E8
:10225000DEF8004004F000549460DEF8004004F022
:1022600000441461BEF80440D461BEF8064004F096
:102270000F04D460DEF8044004F480145461DEF8E6
:10228000044004F4001494619EF8074004F07F04B5
:102290001462DEF80440E40F54624FF0000C0CE0CE
:1022A000DEF8004024F060441460D1E70EEB0C042B
:1022B000247A03F80C400CF1010CD468144D2C5D09
:1022C0006445F3D8402909D041290CD01F290ED8E4
:1022D000026801238B40C2F8983002E00368C3F81B
:1022E000A860002070BD0368C3F8B860F9E701F08A
:1022F0001F01026801238B40C2F89C30F1E7D0F83F
:102300009C3043F00803C0F89C300120704700BFA8
:10231000F09B000890F89830013BDBB2012B07D905
:10232000D0F89C3043F00203C0F89C300120704785
:1023300010B403689C6D0C4224D1DC6D44F00104A0
:10234000DC6511F4007F05D00468D4F8E030134355
:10235000C4F8E03011F4806F05D00468D4F8E4309C
:102360001343C4F8E4300068436D0C4A0A40134339
:1023700043650B4A536943EA9173536100205DF84A
:10238000044B70479C6D31EA040402D00324DC65E1
:10239000D7E7DC6D44F00204DC65D2E7FFFFCF3FF6
:1023A00000A80040704770477047704770477047FB
:1023B0007047704770477047704770477047704765
:1023C000704770472DE9F04F83B00446904B1A696F
:1023D0005B69134001939B07009303681A6D02F435
:1023E000704A5A6D0AEA020A1A6D02F00F095A6D14
:1023F00009EA02091A6D02F0F0085A6D08EA0208AB
:102400001E6D06F071565A6D16401F6D07F060770D
:102410005A6D17405D6DD3F850B015F4807F02D02F
:102420001BF4807F64D115F4806F02D01BF4806FA1
:1024300067D1009B002B74D1BAF1000F7ED1B9F1A6
:10244000000F40F08780B8F1000F40F08F8015F446
:10245000006F03D01BF4006F40F0948015F4007FF0
:1024600003D01BF4007F40F0988015F4002F03D0B8
:102470001BF4002F40F0A18015F4803F03D01BF423
:10248000803F40F0A58015F4802F03D01BF4802FEF
:1024900040F0A98015F4003F0FD01BF4003F0CD092
:1024A00023684FF400321A65594B00221A61D4F8A0
:1024B0009C3043F08003C4F89C30002F40F09E8095
:1024C0004EB123681E65B20F514B1A61D4F89C308F
:1024D0003343C4F89C3022684E4B9A4200F09C80F3
:1024E000D4F89C30002B40F0F98003B0BDE8F08FA9
:1024F0004FF480721A65464B00221A61FFF75BFFAA
:1025000091E72368D3F8DC10D3F8E4204FF480601F
:1025100018653F4B0020186111402046FFF747FF28
:1025200087E7236800221A65019B03F00303384AFA
:10253000136100992046FFF735FF7DE72368C3F854
:1025400050A04FEA9A72324B1A6151462046FFF76B
:102550002AFF74E72368C3F850904FEA99722C4B16
:102560001A614946204606F0A3FB6CE72368C3F8CE
:1025700050804FEA9872264B1A6141462046FFF779
:1025800013FF64E723684FF400621A65204B0022B2
:102590001A612046FFF709FF60E72368D3F8D810D7
:1025A000D3F8E0204FF400701865194B0020186133
:1025B00011402046FFF7FAFE57E723684FF4002248
:1025C0001A65134B00221A612046FFF7F1FE53E70C
:1025D00023684FF480321A650D4B00221A612046A1
:1025E000FFF7E7FE4FE723684FF480221A65084B98
:1025F00000221A612046FFF7DDFE4BE723681F65C6
:10260000BA0F034B1A6139462046FFF7D6FE57E74B
:1026100000A8004000A0004063689A6812F0030F11
:102620003FF45EAF196A01F00F015A6A186A00F0B0
:102630003008586A08EA00081F6A07F4C077586A29
:1026400007401E6A06F4FC46586A06401D6A05F4F7
:10265000F025586A0540D3F82490D3F820A0114003
:102660001CD1B8F1000F1ED119F0400F02D01AF0A2
:10267000400F20D15FBB36B163681E62D4F89C3036
:102680003343C4F89C30002D3FF42AAF63681D62C9
:10269000D4F89C302B43C4F89C3021E719622046C3
:1026A000FFF78CFEDDE76368C3F8208041462046D3
:1026B000FFF785FED8E76368D96BDA6B40201862B4
:1026C00002F03F02090C2046FFF77AFED2E763686A
:1026D0001F6239462046FFF774FECCE72046FFF71D
:1026E0006BFE02E7F0B583B000236BE085685E0007
:1026F0000324B44025EA0405CC68B4402C4384602C
:10270000456825EA0C054C68C4F300149C402C4332
:10271000446069E0DD08083550F8254003F0070CF7
:102720004FEA8C0C4FF00F0E0EFA0CFE24EA0E0E40
:102730000C6904FA0CF444EA0E0440F825406BE0FE
:10274000092400E0002404FA0EF42C430CF1020CDE
:10275000694D45F82C404FF0B0442568D44325EA34
:1027600002064F6817F4801F01D042EA05064FF0B9
:10277000B0452E606D6804EA05064F6817F4001F27
:1027800001D042EA05064FF0B0456E60D5F884509E
:1027900004EA05064F6817F4003F01D042EA050637
:1027A0004FF0B045C5F88460D5F880502C404E6895
:1027B00016F4803F01D042EA05044FF0B042C2F85F
:1027C000804001330A6832FA03F400F092804FF03F
:1027D000010C0CFA03FC1CEA0202F2D04C6804F073
:1027E0000304013C012C81D94C6804F00304032C40
:1027F0000CD0C4685D004FF0030C0CFA05FC24EA11
:102800000C0C8C68AC4044EA0C04C4604C6804F0C6
:102810000304022C3FF47EAF04684FEA430E4FF0EE
:10282000030C0CFA0EFC24EA0C0C4C6804F00304B4
:1028300004FA0EF444EA0C0404604C6814F4403FBB
:10284000BFD02E4CD4F8F45045F00205C4F8F45033
:10285000D4F8F44004F002040194019C4FEA930C74
:102860000CF10205244C54F8255003F0030E4FEAF6
:102870008E0E0F2404FA0EF425EA0405204CA04223
:102880003FF460AF04F58064A04222D004F5806478
:10289000A04220D004F58064A0421ED004F58064DC
:1028A000A0421CD004F58064A0421AD004F58064D4
:1028B000A04218D004F58064A04216D004F58064CC
:1028C000A04214D004F58064A0423FF439AF0A243A
:1028D00039E7012437E7022435E7032433E70424EA
:1028E00031E705242FE706242DE707242BE70824EA
:1028F00029E703B0F0BD00BF0004005800440258AF
:10290000000002580AB18161704709048161704773
:1029100000285DD010B5044690F84130002B46D019
:10292000242384F841302268136823F001031360E4
:102930006368226823F0706313612268936823F44C
:1029400000439360E368012B36D0A368226843F408
:1029500004439360E368022B34D02268536823F465
:1029600000635360226851681A4B0B43536022681E
:10297000D36823F40043D360236962691343A169D8
:10298000226843EA0123D360E369216A22680B438A
:1029900013602268136843F0010313600020606431
:1029A000202384F84130206384F8420010BD80F871
:1029B0004030FDF779FFB3E7A368226843F4004392
:1029C0009360C7E72268536843F400635360C9E724
:1029D0000120704700800002034690F84120D2B2E7
:1029E000202A23D190F84020012A21D0012280F80A
:1029F0004020242280F841200068026822F0010271
:102A000002601868026822F4805202601868026846
:102A10001143016019680A6842F001020A6020222D
:102A200083F84120002083F840007047022070475F
:102A300002207047034690F84120D2B2202A21D1CB
:102A400090F84020012A1FD0012280F84020242243
:102A500080F841200068026822F0010202601868D4
:102A6000026822F4706242EA0122026019680A6870
:102A700042F001020A60202283F84120002083F8FE
:102A8000400070470220704702207047134BDB68FC
:102A900013F0040F07D1114BDB6803F007038342E7
:102AA0001AD00120704710B50C4AD36823F00703F1
:102AB0000343D360FEF7BAFC0446084B5B6813F48B
:102AC000005F07D1FEF7B2FC001BB0F57A7FF4D9A6
:102AD000012000E0002010BD00207047004802588F
:102AE000002800F0398338B50446036813F0010F5D
:102AF00025D0944A136903F03803926A102B15D03D
:102B0000182B0FD06368B3F5803F3FD0002B53D113
:102B10008C4B1A6822F480321A601A6822F48022E0
:102B20001A6038E002F00302022AEBD1854B1B68E1
:102B300013F4003F03D06368002B00F00F83236879
:102B400013F0020F00F0A1807E4A1369926A13F01D
:102B500038035AD0182B55D0E368002B00F0DE80E4
:102B600078490A6822F0190213430B60FEF75EFCF5
:102B70000546744B1B6813F0040F40F0AD80FEF760
:102B800055FC401B0228F4D90320EEE26D4A13687D
:102B900043F48033136063682BB3FEF747FC0546AC
:102BA000684B1B6813F4003FC9D1FEF73FFC401B84
:102BB0006428F5D90320D8E2B3F5A02F09D0614BE2
:102BC0001A6822F480321A601A6822F480221A608D
:102BD000E1E75C4B1A6842F480221A601A6842F4FA
:102BE00080321A60D7E7FEF721FC0546554B1B687B
:102BF00013F4003FA3D0FEF719FC401B6428F5D95D
:102C00000320B2E212F0030FA6D14E4B1B6813F063
:102C1000040F03D0E368002B00F0A282494A136836
:102C200023F01903E1680B431360FEF7FFFB054631
:102C3000444B1B6813F0040F06D1FEF7F7FB401B53
:102C40000228F5D9032090E2FEF70AFC41F20303C3
:102C5000984212D82269402A07D03A494B6823F497
:102C60007C3343EA02334B600FE0364A536823F467
:102C70007C3343F40033536007E0324A536823F057
:102C8000FE43216943EA01635360236813F0100F88
:102C900000F088802B4A136903F03803926A082BEE
:102CA00056D0182B50D0E369002B00F0B880254A8D
:102CB000136843F080031360FEF7B8FB0546214B11
:102CC0001B6813F4807F40F08880FEF7AFFB401B49
:102CD0000228F4D9032048E2FEF7C2FB41F20303C5
:102CE000984212D82269402A07D016494B6823F42B
:102CF0007C3343EA02334B60C7E7124A536823F43C
:102D00007C3343F400335360BFE70E4A536823F02B
:102D1000FE43216943EA01635360B6E7094A136839
:102D200023F001031360FEF781FB0546054B1B688A
:102D300013F0040FA9D0FEF779FB401B0228F5D948
:102D4000032012E20044025802F00302012AAAD131
:102D5000A14B1B6813F4807F03D0E369802B40F004
:102D60000182FEF77DFB41F20303984212D8226AEA
:102D7000202A07D098494B6823F0F84343EA82633E
:102D80004B600FE0944A536823F0F84343F08043CC
:102D9000536007E0904AD36823F07C53216A43EAEA
:102DA0000163D360236813F0080F60D06369002BC0
:102DB00049D0894A536F43F001035367FEF736FB4E
:102DC0000546854B5B6F13F0020F50D1FEF72EFBCB
:102DD000401B0228F5D90320C7E1FEF741FB41F271
:102DE0000303984212D8226A202A07D07A494B68F6
:102DF00023F0F84343EA82634B60D3E7764A536893
:102E000023F0F84343F080435360CBE7724AD36822
:102E100023F07C53216A43EA0163D360C2E76E4A20
:102E2000136823F080031360FEF700FB05466A4B2E
:102E30001B6813F4807FB5D0FEF7F8FA401B022818
:102E4000F5D9032091E1644A536F23F001035367DE
:102E5000FEF7ECFA0546604B5B6F13F0020F06D0ED
:102E6000FEF7E4FA401B0228F5D903207DE1236830
:102E700013F0200F29D0A3699BB1574A136843F47C
:102E800080531360FEF7D2FA0546534B1B6813F4C8
:102E9000005F1AD1FEF7CAFA401B0228F5D90320B9
:102EA00063E14D4A136823F480531360FEF7BEFAC2
:102EB0000546494B1B6813F4005F06D0FEF7B6FACF
:102EC000401B0228F5D903204FE1236813F0040FBB
:102ED00021D1636A002B00F047813F4A126902F05A
:102EE0003802182A00F0EE80022B79D03A4A136893
:102EF00023F080731360FEF799FA0446364B1B6883
:102F000013F0007F00F0DC80FEF790FA001B02282F
:102F1000F4D9032029E1314A136843F48073136024
:102F2000FEF784FA05462D4B1B6813F4807F06D10B
:102F3000FEF77CFA401B6428F5D9032015E1A3684D
:102F4000012B0AD00BBB244B1A6F22F001021A6727
:102F50001A6F22F004021A6704E01F4A136F43F04D
:102F600001031367A36833B3FEF760FA05461A4BF3
:102F70001B6F13F0020FACD1FEF758FA401B41F261
:102F800088339842F3D90320EFE0052B09D0124B88
:102F90001A6F22F001021A671A6F22F004021A67F0
:102FA000E0E70D4B1A6F42F004021A671A6F42F005
:102FB00001021A67D6E7FEF739FA0546064B1B6F82
:102FC00013F0020F85D0FEF731FA401B41F288332F
:102FD0009842F3D90320C8E0004402580048025840
:102FE000694A136823F080731360FEF71FFA0546E1
:102FF000654B1B6813F0007F06D0FEF717FA401BE5
:103000000228F5D90320B0E05F4B996A5F4A0A4075
:10301000A16AE06A41EA00110A439A62226B013A0E
:10302000C2F30802616B0139490289B20A43A16BFC
:103030000139090401F4FE010A43E16B0139090673
:1030400001F0FE410A431A63DA6A22F00102DA62F1
:103050005A6B6FF3CF02A16C42EAC1025A63DA6A7B
:1030600022F00C02216C0A43DA62DA6A22F00202D0
:10307000616C0A43DA62DA6A42F48032DA62DA6A4E
:1030800042F40032DA62DA6A42F48022DA62DA6A00
:1030900042F00102DA621A6842F080721A60FEF7AA
:1030A000C5F90446384B1B6813F0007F06D1FEF7C4
:1030B000BDF9001B0228F5D9032056E0002054E09A
:1030C000002052E0304A916A106B012B4ED001F083
:1030D0000303A26A93424BD1C1F30511E36A9942FB
:1030E00048D1C0F30802236B013B9A4244D1C0F39C
:1030F0004622636B013B9A4240D1C0F30642A36B68
:10310000013B9A423CD1C0F30660E36B013B98421D
:1031100038D11D4B5B6BC3F3CC03A26C9A4201D137
:10312000002022E0184AD36A23F00103D362FEF79D
:103130007DF90546FEF77AF9A842FBD0124A536B97
:103140006FF3CF03A16C43EAC1035363D36A43F027
:103150000103D362002008E001207047012004E051
:10316000012002E0012000E0002038BD0120FCE742
:103170000120FAE70120F8E70120F6E70120F4E753
:103180000120F2E70120F0E7004402580CFCFFFFA9
:10319000754B1B6903F03803102B00F0DE80182BF1
:1031A0000FD0002B40F0DB806F4B1B6813F0200F1B
:1031B00000F0D7806C4B1B68C3F3C1036B48D84049
:1031C000704710B4684B9A6A02F003029C6AC4F319
:1031D0000510D96A01F001015B6BC3F3CC0301FB5D
:1031E00003F307EE903AF8EE677A14F47C7F77D019
:1031F000012A4AD0022A76D0002A40F091805A4B08
:103200001B6813F0200F23D057490A68C2F3C1028C
:10321000564BD34007EE103AF8EE476A07EE100A15
:10322000B8EE476A86EE867A0B6BC3F3080306EEA8
:10323000903AF8EE666A9FED4E6A67EE867A76EE11
:10324000A77AF7EE006A77EEA67A27EE277A38E0BB
:1032500007EE100AF8EE476A9FED466A86EE267A78
:10326000414B1B6BC3F3080306EE903AF8EE666A17
:103270009FED3F6A67EE867A76EEA77AF7EE006AF0
:1032800077EEA67A27EE277A1BE007EE100AF8EE13
:10329000476A9FED396A86EE267A334B1B6BC3F380
:1032A000080306EE903AF8EE666A9FED316A67EE23
:1032B000867A76EEA77AF7EE006A77EEA67A27EEA0
:1032C000277A294B1B6BC3F34623013307EE903A51
:1032D000F8EE677AC7EE276AFCEEE67A17EE900AF8
:1032E0005DF8044B704707EE100AF8EE476A9FED51
:1032F000236A86EE267A1C4B1B6BC3F3080306EE8B
:10330000903AF8EE666A9FED1A6A67EE867A76EE74
:10331000A77AF7EE006A77EEA67A27EE277AD0E74B
:1033200007EE100AF8EE476A9FED136A86EE267ADA
:103330000D4B1B6BC3F3080306EE903AF8EE666A7A
:103340009FED0B6A67EE867A76EEA77AF7EE006A53
:1033500077EEA67A27EE277AB3E70948704709483F
:1033600070470248704700BF004402580090D003E5
:10337000000000390024744C0024744A20BCBE4B69
:1033800040787D0100093D00002800F0328170B5D1
:103390000D4604469B4B1B6803F00F038B420BD278
:1033A000984A136823F00F030B431360136803F06C
:1033B0000F038B4240F01F81236813F0040F0CD0E1
:1033C0002269914B9B6903F070039A4205D98E499B
:1033D0008B6923F070031A438A61236813F0080F86
:1033E0000CD06269884BDB6903F070039A4205D9FF
:1033F0008549CB6923F070031A43CA61236813F02F
:10340000100F0CD0A269804BDB6903F4E0639A4291
:1034100005D97D49CB6923F4E0631A43CA61236867
:1034200013F0200F0CD0E269774B1B6A03F0700396
:103430009A4205D974490B6A23F070031A430A6251
:10344000236813F0020F0CD0E2686F4B9B6903F006
:103450000F039A4205D96C498B6923F00F031A4375
:103460008A61236813F0010F41D0674A936923F4FE
:103470007063A1680B4393616368022B0AD0032B2E
:1034800027D0012B2CD0604A126812F0040F06D10D
:103490000120ADE0126812F4003F00F0AE805A49FE
:1034A0000A6922F0070213430B61FDF7BFFF0646CE
:1034B000554B1B6903F038036268B3EBC20F16D09B
:1034C000FDF7B4FF801B41F288339842F0D9032006
:1034D0008EE04D4A126812F0007FE0D1012087E0B3
:1034E000494A126812F4807FD9D1012080E0236814
:1034F00013F0020F0CD0E268434B9B6903F00F03FB
:103500009A4205D240498B6923F00F031A438A611E
:103510003C4B1B6803F00F03AB420AD9394A1368CE
:1035200023F00F032B431360136803F00F03AB4228
:1035300065D1236813F0040F0CD02269324B9B69CC
:1035400003F070039A4205D22F498B6923F0700370
:103550001A438A61236813F0080F0CD062692A4B62
:10356000DB6903F070039A4205D22749CB6923F047
:1035700070031A43CA61236813F0100F0CD0A269BC
:10358000214BDB6903F4E0639A4205D21E49CB6903
:1035900023F4E0631A43CA61236813F0200F0CD0B0
:1035A000E269194B1B6A03F070039A4205D216496F
:1035B0000B6A23F070031A430A62FFF7E9FD124910
:1035C0008B69C3F30323114AD35C03F01F03D84074
:1035D0008B6903F00F03D35C03F01F0320FA03F39E
:1035E0000B4A13600B4B18600B4B1868FDF790FAF1
:1035F00070BD012070470120FAE70120F8E70120A3
:10360000F6E700BF0020005200440258E09B00088B
:1036100000000024040000240C00002408B5FFF77B
:10362000B7FD0B4A9369C3F303230A49CB5C03F04C
:103630001F0320FA03F3926902F00F02885C00F086
:103640001F0023FA00F0044A1060044A136008BD0A
:1036500000440258E09B00080000002404000024FD
:1036600008B5FFF7DBFF054BDB69C3F30213044A20
:10367000D35C03F01F03D84008BD00BF00440258CC
:10368000E09B000808B5FFF7C9FF054BDB69C3F3F2
:103690000223044AD35C03F01F03D84008BD00BFD7
:1036A00000440258E09B00083F230360114B1A6955
:1036B00002F0070242609A6902F4706282609A69BD
:1036C00002F00F02C2609A6902F070020261DA69C8
:1036D00002F070024261DA6902F4E06282611B6A00
:1036E00003F07003C361044B1B6803F00F030B600E
:1036F000704700BF0044025800200052404B9B6AB4
:1037000003F00303032B79D070B505460E463C4AFF
:10371000136823F080631360FDF788FE0446384B7E
:103720001B6813F0006F06D0FDF780FE031B022B11
:10373000F5D9032070BD324B9A6A22F47C32296895
:1037400042EA01329A626A68013AC2F30802A96841
:103750000139490289B20A43E9680139090401F4CF
:10376000FE010A4329690139090601F0FE410A43B5
:103770009A63DA6A22F0C00269690A43DA62DA6A95
:1037800022F02002A9690A43DA62DA6A22F0100202
:10379000DA62DA6B6FF3CF02E96942EAC102DA63F7
:1037A000DA6A42F01002DA62C6B91A46DB6A43F4FA
:1037B0000023D362124A136843F080631360FDF75D
:1037C00035FE04460E4B1B6813F0006F14D1FDF755
:1037D0002DFE001B0228F5D90320ABE7012E05D0F2
:1037E000074AD36A43F40013D362E3E7044AD36A77
:1037F00043F48013D362DDE700209BE7012070478C
:1038000000440258404B9B6A03F00303032B79D01A
:1038100070B505460E463C4A136823F0805313608A
:10382000FDF704FE0446384B1B6813F0005F06D01A
:10383000FDF7FCFD031B022BF5D9032070BD324BB5
:103840009A6A22F07C72296842EA01529A626A6896
:10385000013AC2F30802A9680139490289B20A4350
:10386000E9680139090401F4FE010A4329690139B3
:10387000090601F0FE410A431A64DA6A22F4406242
:1038800069690A43DA62DA6A22F40072A9690A43B2
:10389000DA62DA6A22F48072DA625A6C6FF3CF026B
:1038A000E96942EAC1025A64DA6A42F48072DA6271
:1038B000C6B91A46DB6A43F48003D362124A13681E
:1038C00043F080531360FDF7B1FD04460E4B1B68B7
:1038D00013F0005F14D1FDF7A9FD001B0228F5D9F4
:1038E0000320ABE7012E05D0074AD36A43F080736B
:1038F000D362E3E7044AD36A43F40003D362DDE70B
:1039000000209BE70120704700440258F8B50446A8
:10391000036813F0006F30D0836EB3F5001F26D01C
:103920000ED8ABB1B3F5801F07D102210830FFF7E5
:10393000E5FE054695B12E4621E0012635461EE0FE
:10394000B3F5401F01D1002508E00126354616E0F9
:10395000984AD36A43F40033D3620025954A136D25
:1039600023F44013A16E0B431365002607E00221E8
:103970002830FFF747FF0546DCE700263546236879
:1039800013F4807F14D0A36D042B31D8DFE803F04B
:10399000032229080800874AD36A43F40033D3621C
:1039A0004DBB844A136D23F00703A16D0B431365D0
:1039B000236813F4007F38D0E36D802B4AD01FD8E2
:1039C00033B3402B19D1002104F10800FFF796FE14
:1039D000054622E0002104F10800FFF78FFE0546AE
:1039E000DEE7002104F12800FFF70CFF0546D7E7CA
:1039F00001263546DCE72E46DAE70126354614E097
:103A0000C02B0AD0B3F5807F07D0012635460CE0E5
:103A1000684AD36A43F40033D36215BB654A136D19
:103A200023F4E073E16D0B431365236813F4806F97
:103A30003CD0D4F8A830B3F5800F2FD016D8F3B10E
:103A4000B3F5001F0FD1002104F10800FFF756FE67
:103A5000054619E0002104F12800FFF7D3FE0546D2
:103A6000DBE72E46E1E7012635461FE0B3F5C00F40
:103A70000AD0B3F5000F07D00126354616E04D4AAF
:103A8000D36A43F40033D3627DB94A4A936D23F479
:103A90006003D4F8A8100B43936507E0002104F1FC
:103AA0002800FFF7AFFE0546EEE72E46236813F425
:103AB000006F2BD0D4F8AC30B3F1007F53D00DD8C9
:103AC000ABB1B3F1807F06D1002104F10800FFF70C
:103AD00015FE054610E00126354617E0B3F1407F9C
:103AE0000AD0B3F1806F07D0012635460EE0314A87
:103AF000D36A43F40033D362002D3BD12D4A936D3A
:103B000023F0E063D4F8AC100B439365236813F003
:103B1000007F13D0E36C202B36D030D833B1102B7C
:103B20002AD1244AD36A43F40033D3629DBB214A8D
:103B3000D36C23F03003E16C0B43D364236813F49C
:103B4000805F47D0236EB3F5005F00F08D8027D8EB
:103B500093B3B3F5805F20D1002104F10800FFF793
:103B6000CDFD05462DE0002104F12800FFF74AFEB7
:103B70000546C1E72E46C9E701263546DEE7302B6C
:103B8000D4D001263546D9E7022104F10800FFF719
:103B9000B5FD0546CAE72E46D0E70126354619E0B1
:103BA000B3F5405F0DD0B3F5804F0AD001263546FE
:103BB00010E000BF00440258774AD36A43F4003350
:103BC000D362002D57D1744A136D23F4E043216E64
:103BD0000B431365236813F4005F17D0636EB3F5CE
:103BE000003F59D04CD843B1B3F5803F45D10121B6
:103BF00004F10800FFF782FD0546002D53D1664A07
:103C0000136D23F4E023616E0B431365236813F4F3
:103C1000804F19D0D4F8B030B3F1005F54D047D8FA
:103C200043B1B3F1805F40D1012104F10800FFF7F7
:103C300065FD0546002D4ED1574A936D23F0E043B4
:103C4000D4F8B0100B439365236813F4004F51D0A0
:103C5000236FB3F1805F40D0B3F1005F55D0002BEC
:103C600040D00126354645E0002104F12800FFF749
:103C7000C9FD0546A5E72E46ACE701263546C5E752
:103C8000B3F5802FB9D0B3F5A02FB6D0B3F5403F30
:103C9000B3D001263546B9E7012104F12800FFF72A
:103CA000B1FD0546A9E72E46B0E701263546CBE72C
:103CB000B3F1804FBED0B3F1A04FBBD0B3F1405FA2
:103CC000B8D001263546BFE7012104F12800FFF7EF
:103CD00099FD0546AEE72E46B6E72F4AD36A43F470
:103CE0000033D362C5B92C4A136D23F04053216FC2
:103CF0000B431365236813F0807F1CD0A36C032B48
:103D000044D8DFE803F0100B3C10012104F1080057
:103D1000FFF7F4FC0546E5E72E46EBE71E4AD36ABB
:103D200043F40033D362A5BB1B4AD36C23F00303D7
:103D3000A16C0B43D364236813F4800F2ED1236846
:103D400013F0010F00F0A680E36F282B00F2A08093
:103D5000DFE803F08E9E9E9E9E9E9E9E889E9E9E67
:103D60009E9E9E9E979E9E9E9E9E9E9E8E9E9E9E8A
:103D70009E9E9E9E8E9E9E9E9E9E9E9E8E0002213A
:103D800004F10800FFF7BAFC0546CCE701263546EA
:103D9000D1E72E46CFE700BF00440258584A1368C7
:103DA00043F480731360FDF741FB0746544B1B68D7
:103DB00013F4807F05D1FDF739FBC01B6428F5D9CA
:103DC0000325002D4AD14F4B1B6FD4F8B42053402C
:103DD00013F4407F0CD04B4B1A6F22F44072196FD2
:103DE00041F480311967196F21F4803119671A671E
:103DF000D4F8B430B3F5807F15D08DBBD4F8B4308F
:103E000003F44072B2F5407F1ED03E4A136923F49A
:103E10007C5313613B490B6FD4F8B420C2F30B02FF
:103E200013430B678BE7FDF701FB0746354B1B6F11
:103E300013F0020FE1D1FDF7F9FAC01B41F288330C
:103E40009842F3D90325D8E72E48026922F47C5220
:103E50002D4901EA131313430361DBE72E466EE796
:103E60002E466CE7012104F10800FFF747FC0546E8
:103E7000E5B9244A536D23F03803E16F0B435365D2
:103E800008E0012104F12800FFF7BCFC0546EFE73C
:103E900001263546236813F0020F17D0A36F052BB8
:103EA00029D8DFE803F00B05210B0B0B2E46F1E7B9
:103EB000012104F10800FFF721FC0546F5B9114A7C
:103EC000536D23F00703A16F0B435365236813F071
:103ED000040F2CD0D4F89430052B00F2DC80DFE8FE
:103EE00003F01B15D31B1B1B012104F12800FFF756
:103EF00089FC0546E2E701263546E7E72E46E5E779
:103F00000048025800440258CFFFFF00012104F18D
:103F10000800FFF7F3FB0546002D40F0BF80B34AD1
:103F2000936D23F00703D4F894100B439365236833
:103F300013F0200F1DD0D4F89030B3F1005F00F0E3
:103F4000C18000F2B0804BB1B3F1805F40F0A88037
:103F5000002104F10800FFF7D1FB0546002D40F0D9
:103F6000B880A24A536D23F0E043D4F890100B437D
:103F70005365236813F0400F1DD0D4F89C30B3F57F
:103F8000006F00F0BA8000F2A9804BB1B3F5806FEA
:103F900040F0A180002104F10800FFF7AFFB0546C7
:103FA000002D40F0B180914A936D23F4E053D4F892
:103FB0009C100B439365236813F0800F1DD0D4F839
:103FC000A030B3F5804F00F0B38000F2A2804BB177
:103FD000B3F5005F40F09A80002104F10800FFF77C
:103FE0008DFB0546002D40F0AA80804A936D23F496
:103FF0006043D4F8A0100B439365236813F0080FB7
:104000000DD0D4F88430B3F5805F00F09A80774A01
:10401000536D23F44053D4F884100B435365236845
:1040200013F0100F0DD0D4F89830B3F5807F00F066
:1040300092806E4A936D23F44073D4F898100B432A
:104040009365236813F4002F00F09A80D4F8A4300D
:10405000B3F5803F00F08980B3F5003F08D0002B16
:1040600040F08A80002104F10800FFF747FB054675
:10407000002D40F084805D4A936D23F44033D4F8E2
:10408000A4100B4393657BE0012104F12800FFF7A6
:10409000B9FB054640E70126354648E72E4646E788
:1040A0000126354665E7B3F1804F3FF457AFB3F1D2
:1040B000A04F3FF453AFB3F1405F3FF44FAF012641
:1040C000354656E7022104F12800FFF79BFB054621
:1040D00044E72E464DE7012635466CE7B3F5805F91
:1040E0003FF45EAFB3F5A05F3FF45AAFB3F5406F56
:1040F0003FF456AF012635465DE7022104F1280062
:10410000FFF780FB05464BE72E4654E70126354670
:1041100073E7B3F5004F3FF465AFB3F5204F3FF4BD
:1041200061AFB3F5C04F3FF45DAF0126354664E79C
:10413000022104F12800FFF765FB054652E72E46F1
:104140005BE7022104F12800FFF75CFB00283FF445
:104150005EAF01265BE7022104F12800FFF752FB66
:1041600000283FF466AF012663E7022104F128002E
:10417000FFF748FB05467BE70126354600E02E4663
:10418000236813F4802F18D0D4F88830B3F5001FBB
:104190001FD0B3F5401F07D0B3F5801F20D1134ABD
:1041A000D36A43F40033D362EDB9104A536D23F45C
:1041B0004013D4F888100B435365236813F4803FF1
:1041C0002CD0236DA3B1B3F5803F1FD00126354617
:1041D00024E0012104F12800FFF714FB0546E3E782
:1041E00001263546E9E72E46E7E700BF00440258BE
:1041F000704AD36A43F40033D36275B96D4AD36C05
:1042000023F48033216D0B43D36407E0022104F1D2
:104210000800FFF773FA0546EFE72E46236813F010
:10422000005F11D1236813F4003F28D0D4F8803008
:10423000B3F5807F14D010D9B3F5007F15D0B3F556
:10424000407F12D001261AE0022104F12800FFF776
:10425000D9FA0028E6D00126E4E733B101260EE0C2
:10426000544AD36A43F40033D362002D69D1514AD2
:10427000536D23F44073D4F880100B4353652368C7
:1042800013F4801F06D04B4A136D23F00043616F77
:104290000B431365236813F0805F07D0454A136909
:1042A00023F48043D4F8B8100B431361236813F44C
:1042B000001F06D03F4A136D23F08073E16E0B435D
:1042C0001365236813F0804F09D03A4B1A6922F422
:1042D00000421A611A69D4F8BC100A431A612368B3
:1042E000002B06DA334AD36C23F04053616D0B4345
:1042F000D364236813F4000F07D02E4A536D23F4C0
:104300004003D4F88C100B435365636813F0010F1E
:1043100019D1636813F0020F1ED1636813F0040F04
:1043200023D1636813F0080F28D1636813F0100FCE
:104330002DD1636813F0200F32D106B1012630462B
:10434000F8BD2E469BE7002104F10800FFF7D6F9DF
:104350000028DED00646DCE7012104F10800FFF763
:10436000CDF90028D9D00646D7E7022104F108008C
:10437000FFF7C4F90028D4D00646D2E7002104F1A3
:104380002800FFF73FFA0028CFD00646CDE70121ED
:1043900004F12800FFF736FA0028CAD00646C8E71D
:1043A000022104F12800FFF72DFA0028C5D00126CC
:1043B000C5E700BF0044025808B5FFF72FF9054BC9
:1043C0001B6AC3F30213044AD35C03F01F03D840F3
:1043D00008BD00BF00440258E09B000810B4794BB0
:1043E0009A6A9C6AC4F3053CD96AC1F30011DB6B7D
:1043F000C3F3CC0301FB03F314F47C3F00F0DD8036
:1044000002F0030207EE903AF8EE677A012A4BD0E9
:10441000022A00F09880002A40F0B280694B1B68A5
:1044200013F0200F23D067490A68C2F3C102664B1C
:10443000D34007EE103AF8EE476A07EE10CAB8EE1E
:10444000476A86EE867A8B6BC3F3080306EE903AD2
:10445000F8EE666A9FED5D6A67EE867A76EEA77A79
:10446000F7EE006A77EEA67A27EE277A38E007EEB5
:1044700010CAF8EE476A9FED566A86EE267A514BCF
:104480009B6BC3F3080306EE903AF8EE666A9FED65
:104490004F6A67EE867A76EEA77AF7EE006A77EED5
:1044A000A67A27EE277A1BE007EE10CAF8EE476AD5
:1044B0009FED486A86EE267A424B9B6BC3F3080356
:1044C00006EE903AF8EE666A9FED406A67EE867AED
:1044D00076EEA77AF7EE006A77EEA67A27EE277ACD
:1044E000384A936BC3F3462307EE903AF8EE677AA7
:1044F000F7EE006A77EEA67A87EE276ABCEEC66A08
:1045000080ED006A936BC3F3064307EE903AF8EE32
:10451000677A77EEA67A87EE276ABCEEC66A80EDE8
:10452000016A936BC3F3066307EE903AF8EE677A7D
:1045300077EEA67AC7EE276AFCEEE66AC0ED026A5D
:104540005DF8044B704707EE10CAF8EE476A9FED1E
:10455000226A86EE267A1B4B9B6BC3F3080306EE9A
:10456000903AF8EE666A9FED196A67EE867A76EE03
:10457000A77AF7EE006A77EEA67A27EE277AAFE7FA
:1045800007EE10CAF8EE476A9FED126A86EE267AA9
:104590000C4B9B6BC3F3080306EE903AF8EE666A89
:1045A0009FED0A6A67EE867A76EEA77AF7EE006AE2
:1045B00077EEA67A27EE277A92E70023036043601E
:1045C0008360BDE7004402580090D003000000392A
:1045D0000024744C0024744A20BCBE4B10B4794BA8
:1045E0009A6A9C6AC4F3055CD96AC1F300215B6CCA
:1045F000C3F3CC0301FB03F314F07C7F00F0DD80F8
:1046000002F0030207EE903AF8EE677A012A4BD0E7
:10461000022A00F09880002A40F0B280694B1B68A3
:1046200013F0200F23D067490A68C2F3C102664B1A
:10463000D34007EE103AF8EE476A07EE10CAB8EE1C
:10464000476A86EE867A0B6CC3F3080306EE903A4F
:10465000F8EE666A9FED5D6A67EE867A76EEA77A77
:10466000F7EE006A77EEA67A27EE277A38E007EEB3
:1046700010CAF8EE476A9FED566A86EE267A514BCD
:104680001B6CC3F3080306EE903AF8EE666A9FEDE2
:104690004F6A67EE867A76EEA77AF7EE006A77EED3
:1046A000A67A27EE277A1BE007EE10CAF8EE476AD3
:1046B0009FED486A86EE267A424B1B6CC3F30803D3
:1046C00006EE903AF8EE666A9FED406A67EE867AEB
:1046D00076EEA77AF7EE006A77EEA67A27EE277ACB
:1046E000384A136CC3F3462307EE903AF8EE677A24
:1046F000F7EE006A77EEA67A87EE276ABCEEC66A06
:1047000080ED006A136CC3F3064307EE903AF8EEAF
:10471000677A77EEA67A87EE276ABCEEC66A80EDE6
:10472000016A136CC3F3066307EE903AF8EE677AFA
:1047300077EEA67AC7EE276AFCEEE66AC0ED026A5B
:104740005DF8044B704707EE10CAF8EE476A9FED1C
:10475000226A86EE267A1B4B1B6CC3F3080306EE17
:10476000903AF8EE666A9FED196A67EE867A76EE01
:10477000A77AF7EE006A77EEA67A27EE277AAFE7F8
:1047800007EE10CAF8EE476A9FED126A86EE267AA7
:104790000C4B1B6CC3F3080306EE903AF8EE666A06
:1047A0009FED0A6A67EE867A76EEA77AF7EE006AE0
:1047B00077EEA67A27EE277A92E70023036043601C
:1047C0008360BDE7004402580090D0030000003928
:1047D0000024744C0024744A20BCBE4BF0B4026A1E
:1047E000036A23F001030362466884691E4B234079
:1047F0000D681D4322F002028B6813431B4A1C4CB8
:10480000A04218BF90420CBF012200220CD004F538
:104810008044A04214BF00240124164FB84203D0A4
:1048200014B9154CA04205D123F00803CC682343EA
:1048300023F004035AB9114A904214BF0022012206
:104840000C4CA04203D012B90B4A904205D126F479
:1048500040764A6932438E691643466085614A68EC
:1048600042630362F0BC70478CFFFEFF0000014012
:104870000004014000400140004801400044014064
:1048800070B4036A026A22F4807202624568C469E5
:104890001A4A22400E68164323F400738A6843EADA
:1048A0000223174A174CA04218BF90420CBF0122A6
:1048B000002206D123F40063CC6843EA042323F4E6
:1048C00080635AB9104A904214BF002201220F4C53
:1048D000A04203D012B90E4A904207D125F44052AB
:1048E0004C6942EA04128C6942EA04154560C661CB
:1048F0004A68C263036270BC704700BF8CFFFEFF52
:10490000000001400004014000440140004001401B
:104910000048014070B4036A026A22F480520262C5
:104920004468C569144A2A400D6842EA052223F406
:1049300000538D6843EA0533104E114DA84218BF4D
:10494000B0420DD005F58045A84214BF00250125D1
:1049500006F58046B04203D015B90A4DA84204D1ED
:1049600024F480444D6944EA85144460C2614A6875
:104970000264036270BC7047FF8CFFFE00000140C0
:10498000000401400048014070B4036A026A22F446
:10499000803202624268456D144E2E400D682E43EF
:1049A00023F400338C6843EA0443114D114CA042B8
:1049B00018BFA8420DD004F58044A04214BF0024C3
:1049C000012405F58045A84203D014B90A4CA04241
:1049D00004D122F480324C6942EA042242604665E6
:1049E0004A688265036270BC704700BF8FFFFEFF9C
:1049F00000000140000401400048014070B4036A17
:104A0000026A22F4801202624468456D144A2A4008
:104A10000D6842EA052223F400138D6843EA05532A
:104A2000104E114DA84218BFB0420DD005F580457B
:104A3000A84214BF0025012506F58046B04203D0E8
:104A400015B90A4DA84204D124F480244D6944EAE2
:104A50008524446042654A68C265036270BC704741
:104A6000FF8FFFFE000001400004014000480140AC
:104A700010B4036A046A24F001040462846924F017
:104A8000F00C4CEA021223F00A030B43826103622A
:104A90005DF8044B704710B4036A046A24F01004F4
:104AA0000462846924F4704C4CEA023223F0A003BF
:104AB00043EA0113826103625DF8044B7047000012
:104AC0008268034B13400B4343F007038360704736
:104AD0008FFFCFFF90F83D30DBB2012B3AD102239C
:104AE00080F83D300268D36843F00103D360036867
:104AF0001A4AB3F1804F18BF93421DD0A2F57C42F1
:104B0000934219D002F58062934215D002F580627B
:104B1000934211D002F5784293420DD0A2F56C4237
:104B2000934209D002F59432934205D01A6842F0BC
:104B300001021A60002070479968094A0A40062A53
:104B400018BFB2F5803F07D01A6842F001021A6020
:104B5000002070470120704700207047000001408E
:104B600007000100704770477047704770B50446F2
:104B70000368DE681D6915F0020F10D016F0020FF1
:104B80000DD06FF002021A610123037703689B695D
:104B900013F0030F64D0FFF7E6FF0023237715F02F
:104BA000040F12D016F0040F0FD023686FF0040228
:104BB0001A610223237723689B6913F4407F55D041
:104BC0002046FFF7D0FF0023237715F0080F12D0FF
:104BD00016F0080F0FD023686FF008021A61042343
:104BE00023772368DB6913F0030F46D02046FFF7D5
:104BF000BAFF0023237715F0100F12D016F0100F14
:104C00000FD023686FF010021A61082323772368FE
:104C1000DB6913F4407F37D02046FFF7A4FF002361
:104C2000237715F0010F02D016F0010F33D115F4E0
:104C3000025F02D016F0800F35D115F4807F02D0CC
:104C400016F0800F37D115F0400F02D016F0400F4C
:104C500039D115F0200F02D016F0200F3BD170BDD6
:104C6000FFF780FF2046FFF77FFF96E72046FFF71C
:104C700079FF2046FFF778FFA5E72046FFF772FF90
:104C80002046FFF771FFB4E72046FFF76BFF204691
:104C9000FFF76AFFC3E723686FF001021A6120463D
:104CA000FBF764FEC3E723686FF402521A612046E3
:104CB00000F07DFBC1E723686FF480721A61204623
:104CC00000F076FBBFE723686FF040021A612046D0
:104CD000FFF74BFFBDE723686FF020021A61204603
:104CE00000F064FBBBE7000070B40368394A9042EF
:104CF00014BF00220122B0F1804F14BF144642F0CD
:104D00000104ACB9344DA84214BF00250125334E2F
:104D1000B0420DD065B905F1804505F58235A84250
:104D200014BF0025012506F50066B04200D01DB174
:104D300023F070034D682B4314BB274CA04214BFD3
:104D400000240124254DA8421AD0CCB904F1804496
:104D500004F58234A04214BF0024012405F5006547
:104D6000A8420DD064B91E4CA04214BF00240124F7
:104D700005F59A35A84203D014B91A4CA04203D1C4
:104D800023F44073CC68234323F080034C6923430E
:104D90008C68C4620C688462134CA04208BF42F065
:104DA000010262B90E4A904214BF0022012204F5AA
:104DB0007054A04203D012B90A4A904201D10A6944
:104DC0000263026842F00402026001224261036051
:104DD00070BC704700000140000800400004004023
:104DE00000440140004801400004014060B310B598
:104DF000044690F83D3013B3022384F83D30214639
:104E000051F8040BFFF770FF012384F8483084F851
:104E10003E3084F83F3084F8403084F8413084F8E4
:104E2000423084F8433084F8443084F8453084F8C4
:104E3000463084F8473084F83D30002010BD80F8BB
:104E40003C30FCF7AFF8D7E70120704760B310B5EE
:104E5000044690F83D3013B3022384F83D302146D8
:104E600051F8040BFFF740FF012384F8483084F821
:104E70003E3084F83F3084F8403084F8413084F884
:104E8000423084F8433084F8443084F8453084F864
:104E9000463084F8473084F83D30002010BD80F85B
:104EA0003C30FBF7F1FFD7E70120704700284DD0D9
:104EB000F8B50D46044690F83D30002B41D0022352
:104EC00084F83D3022689168214B0B409360214665
:104ED00051F8040BFFF708FF21688A688B690E6A96
:104EE000286810431B4A1A40AB68AF6943EA07239E
:104EF0001343194A1A40EB68EF6943EA07231A4340
:104F00002B6A1B032F6943EA0713134326F0AA06F3
:104F10006A686D6942EA05123243886021688B61D4
:104F200023681A62012384F8483084F83E3084F8FC
:104F30003F3084F8443084F8453084F83D30002018
:104F4000F8BD80F83C30FBF7C9FFB8E70120704797
:104F5000F8BFFEFFFCFCFFFF0303FFFF70B4036A12
:104F6000026A22F010020262456884691A4E2640E5
:104F70000C6846EA042623F020038A6843EA0213F9
:104F8000164A174CA04218BF90420CBF01220022C3
:104F900006D123F08003CC6843EA041323F04003D6
:104FA0005AB9104A904214BF002201220E4CA0426E
:104FB00003D012B90D4A904207D125F4406C4A69DA
:104FC0004CEA820C8A694CEA8205456086614A682F
:104FD0008263036270BC7047FF8CFFFE00000140DB
:104FE00000040140004401400040014000480140ED
:104FF00038B590F83C30012B00F0958004460D4602
:10500000012380F83C30142A00F28880DFE802F0A7
:105010000B8686861F8686863486868648868686A2
:105020005D86868671000068FFF7D8FB2268936969
:1050300043F0080393612268936923F004039361AA
:105040002268936929690B439361002067E0006837
:10505000FFF784FF2268936943F400639361226839
:10506000936923F48063936122689369296943EA11
:1050700001239361002052E00068FFF701FC2268E1
:10508000D36943F00803D3612268D36923F0040392
:10509000D3612268D36929690B43D36100203EE0C4
:1050A0000068FFF737FC2268D36943F40063D361DB
:1050B0002268D36923F48063D3612268D3692969A4
:1050C00043EA0123D361002029E00068FFF75CFC7C
:1050D0002268536D43F0080353652268536D23F033
:1050E000040353652268536D29690B4353650020FF
:1050F00015E00068FFF782FC2268536D43F40063FB
:1051000053652268536D23F4806353652268536DA1
:10511000296943EA01235365002000E001200023B0
:1051200084F83C3038BD0220FCE710B4846824F4D5
:105130007F4C42EA03220A4342EA0C0282605DF895
:10514000044B704790F83C30012B00F08F8010B575
:105150000446012380F83C30022380F83D30026889
:105160009068434B034093600B68702B55D031D847
:10517000502B6CD01FD8402B0AD1CA6849682068D0
:10518000FFF776FC40212068FFF79AFC002029E019
:1051900068D8202B03D00AD80BB1102B05D11946A3
:1051A0002068FFF78DFC00201CE001201AE0302B66
:1051B000F5D0012016E0602B0AD1CA684968206842
:1051C000FFF769FC60212068FFF77AFC002009E006
:1051D000012007E0B3F5005F2CD00AD8B3F5805F5B
:1051E00042D10020012384F83D30002384F83C3074
:1051F00010BD204A9342D2D007D8B3F5801FCED03D
:10520000B3F1101FCBD00120ECE71B4A9342C6D06C
:1052100010329342C3D00120E4E7CB684A68896822
:105220002068FFF782FF2268936843F0770393605A
:105230000020D7E7CB684A6889682068FFF775FFC8
:105240002268936843F4804393600020CAE7CA68E9
:1052500049682068FFF70CFC50212068FFF730FCFC
:105260000020BFE70120BDE70120BBE70220704717
:105270008800CEFF200010003000100090F83C2085
:10528000012A45D070B40346012280F83C20022256
:1052900080F83D200268506894681E4E1E4DAA4258
:1052A00018BFB24203D120F470004D68284320F0AB
:1052B00070000D68284350601A681648B2F1804F9C
:1052C00018BF824217D0A0F57C40824213D000F56F
:1052D000806082420FD000F5806082420BD000F5E2
:1052E0007840824207D0A0F56C40824203D000F59E
:1052F0009430824204D124F0800489682143916073
:10530000012283F83D20002083F83C0070BC7047E8
:1053100002207047000001400004014090F83C303A
:10532000012B3CD030B40246012380F83C30CB68DE
:1053300023F440738868034323F48063486803437D
:1053400023F400630868034323F48053086903438C
:1053500023F400534869034323F48043886A0343DA
:1053600023F47023886943EA004310680D4D0E4C06
:10537000A04218BFA8420CD123F470034C6A43EA40
:10538000045323F08073CC69234323F00073096A2C
:105390000B434364002082F83C0030BC704702207D
:1053A000704700BF00000140000401407047704793
:1053B00070470000026852E8003F23F4907342E80F
:1053C00000310029F6D1026802F1080353E8001FFA
:1053D0000D4B0B40083242E800310029F3D1C36E77
:1053E000012B06D02023C0F88C300023C36643670E
:1053F0007047026852E8003F23F0100342E8003192
:105400000029F6D1EEE700BFFEFFFFEF704708B5B9
:10541000026852E8003F23F0400342E800310029CF
:10542000F6D12023C0F8883000238367FFF7EEFF12
:1054300008BD704708B5806B0023A0F85E30FFF709
:10544000F8FF08BD7047000070B504460268D369D4
:105450001068916840F60F0C13EA0C0F0DD113F091
:10546000200F10D010F0200F02D111F0805F0AD071
:10547000636F93B3204698472FE0884D0D402DD1A0
:10548000874E30422AD1E56E012D00F0C08013F422
:10549000801F03D011F4800F40F0A28113F0800F21
:1054A00007D010F0800F40F0A28111F4000F40F0FF
:1054B0009E8113F0400F03D010F0400F40F09E810A
:1054C00013F4000F03D010F0804F40F09B8113F0D5
:1054D000807F02D00028C0F2998170BD13F0010FC7
:1054E00009D010F4807F06D001261662D4F89020EF
:1054F0003243C4F8902013F0020F0BD011F0010FCB
:1055000008D0226802261662D4F8902042F00402E5
:10551000C4F8902013F0040F0BD011F0010F08D045
:10552000226804261662D4F8902042F00202C4F8E1
:10553000902013F0080F0BD010F0200F00D13DB1D8
:10554000226808251562D4F890202A43C4F89020D8
:1055500013F4006F0CD010F0806F09D022684FF464
:1055600000651562D4F8902042F02002C4F8902023
:10557000D4F89020002AB0D013F0200F09D010F0FA
:10558000200F02D111F0805F03D0636F0BB1204672
:105590009847D4F8902023689B6813F0400F02D1FD
:1055A00012F0280F2CD02046FFF704FF23689B68D9
:1055B00013F0400F20D0226802F1080353E8003FA7
:1055C00023F04003083242E800310029F3D1D4F837
:1055D00080306BB1334A1A65D4F88000FCF7A0F92B
:1055E00000283FF47AAFD4F88000036D984774E741
:1055F0002046FFF71EFF70E72046FFF71AFF6CE713
:105600002046FFF716FF0023C4F8903065E713F03B
:10561000100F3FF43CAF10F0100F3FF438AF1023E1
:10562000136223689B6813F0400F00F09F80D4F84A
:10563000802013681C481D498B4218BF834237D015
:1056400018318B4234D018318B4231D018318B4213
:105650002ED018318B422BD018318B4228D01831E4
:105660008B4225D001F556718B4221D018318B42E7
:105670001ED018318B421BD018318B4218D01831F4
:105680008B4215D018318B4212D018318B420FD07B
:1056900018318B420CD05B689BB20BE0010000100C
:1056A0002001000435540008100002402800024088
:1056B0005B689BB2002B49D0B4F85C10994245D985
:1056C000A4F85E30D369B3F5807F32D0226852E807
:1056D000003F23F4807342E800310029F6D12268AC
:1056E00002F1080353E8003F23F00103083242E8C7
:1056F00000310029F3D1226802F1080353E8003F8A
:1057000023F04003083242E800310029F3D120237E
:10571000C4F88C300023E366226852E8003F23F08F
:10572000100342E800310029F6D1D4F88000FBF7DD
:1057300057FF02232367B4F85C10B4F85E309BB2C5
:10574000C91A89B22046FFF77DFEC6E6B4F85C10A0
:1057500099427FF4C2AED369B3F5807F7FF4BDAECA
:10576000022323672046FFF76DFEB6E6B4F85C100F
:10577000B4F85E309BB2C91A89B2B4F85E309BB2FD
:10578000002B3FF4AAAE00293FF4A7AE226852E8EE
:10579000003F23F4907342E800300028F6D12268DD
:1057A00002F1080353E8000F1A4B0340083242E8A5
:1057B00000300028F3D12023C4F88C300023E366A6
:1057C0006367226852E8003F23F0100342E800308C
:1057D0000028F6D1022323672046FFF733FE7CE63C
:1057E0004FF480131362204601F058F875E6A36F5A
:1057F000002B3FF472AE204698476EE62046FFF736
:1058000006FE6AE6204601F04BF866E6204601F007
:1058100046F862E6FEFFFFEF08B5B0F86030D0F85A
:105820008C20222A05D00268936943F00803936113
:1058300008BD0268516ADBB2826D0B401370836D44
:1058400001338365B0F85E309BB2013B9BB2A0F898
:105850005E30B0F85E309BB2002BE9D1026852E8AE
:10586000003F23F4907342E800310029F6D102682A
:1058700002F1080353E8003F23F00103083242E835
:1058800000310029F3D12023C0F88C300023436776
:1058900003670368164A93420CD05B6813F4000F49
:1058A00008D0026852E8003F23F0806342E80031EC
:1058B0000029F6D1C36E012B16D10023C3660268FE
:1058C00052E8003F23F0100342E800310029F6D1EE
:1058D0000368DA6912F0100F01D010221A62B0F8D2
:1058E0005C10FFF7AFFDA3E703F0CAFBA0E700BF22
:1058F000000C005808B5B0F86020D0F88C30222B8E
:1059000005D00268936943F00803936108BD0368FA
:105910005B6A816D13400B80836D02338365B0F841
:105920005E309BB2013B9BB2A0F85E30B0F85E30B7
:105930009BB2002BEAD1026852E8003F23F4907337
:1059400042E800310029F6D1026802F1080353E869
:10595000003F23F00103083242E800310029F3D16F
:105960002023C0F88C300023436703670368164A7E
:1059700093420CD05B6813F4000F08D0026852E821
:10598000003F23F0806342E800310029F6D1C36E66
:10599000012B16D10023C366026852E8003F23F0B2
:1059A000100342E800310029F6D10368DA6912F0E9
:1059B000100F01D010221A62B0F85C10FFF742FD00
:1059C000A4E703F05DFBA1E7000C00582DE9F843C4
:1059D000B0F860500368D3F81C90D3F800809F683B
:1059E000D0F88C20222A05D09A6942F008029A61E8
:1059F000BDE8F8830446B0F8686008E0D4F8903059
:105A0000002B4DD1B4F85E309BB2002B4FD0002E4E
:105A100000F0938019F0200F00F08F802368596AFE
:105A2000EBB2A26D0B401370A36D0133A365B4F804
:105A30005E309BB2013B9BB2A4F85E302368D3F882
:105A40001C9019F0070FDDD019F0010F09D018F4E0
:105A5000807F06D001221A62D4F890301343C4F834
:105A6000903019F0020F0BD017F0010F08D0236807
:105A700002221A62D4F8903043F00403C4F8903044
:105A800019F0040FBAD017F0010FB7D02368042221
:105A90001A62D4F8903043F00203C4F89030ADE7B6
:105AA0002046FFF7C6FC0023C4F89030AAE722681E
:105AB00052E8003F23F4807342E800310029F6D118
:105AC000226802F1080353E8001F2F4B0B400832F5
:105AD00042E800310029F3D12023C4F88C300023A0
:105AE000636723672368294A93420CD05B6813F4E9
:105AF000000F08D0226852E8003F23F0806342E89C
